:020000040800F2
:10000000F80500200D0200085B1B0008571B0008C4
:10001000591B0008190300086922000800000000AD
:10002000000000000000000000000000611B00084C
:10003000F1030008000000005F1B0008631B0008BC
:1000400027020008270200082702000827020008EC
:1000500027020008270200082702000827020008DC
:1000600027020008270200082702000827020008CC
:1000700027020008270200082702000827020008BC
:1000800027020008270200082702000827020008AC
:10009000270200082702000827020008270200089C
:1000A000270200082702000827020008270200088C
:1000B000270200082702000827020008270200087C
:1000C000270200082702000827020008270200086C
:1000D00027020008ED210008270200082702000877
:1000E000F30300082702000827020008270200087F
:1000F000270200082702000827020008270200083C
:10010000270200082702000827020008270200082B
:10011000611C00086D1C0008270200082702000867
:10012000270200082702000827020008270200080B
:1001300027020008270200082702000827020008FB
:1001400027020008270200082702000827020008EB
:1001500027020008270200082702000827020008DB
:1001600027020008270200082702000827020008CB
:1001700027020008270200082702000800000000EC
:1001800027020008270200082702000827020008AB
:10019000270200082702000827020008270200089B
:1001A000270200082702000827020008270200088B
:1001B000270200082702000827020008270200087B
:1001C000270200082702000800000000270200089C
:1001D000270200082702000827020008270200085B
:1001E000270200082702000827020008270200084B
:1001F0002702000827020008DFF80CD000F07AF888
:100200000048004789220008F8050020064880477A
:1002100006480047FEE7FEE7FEE7FEE7FEE7FEE7EB
:10022000FEE7FEE7FEE7FEE7451C0008F9010008CF
:100230002DE9F05F0546002092469B46884606461B
:10024000814640241BE0284641464746224600F0AE
:1002500041F853465A46C01A914110D311461846E8
:10026000224600F028F82D1A67EB01084F46224677
:100270000120002100F01FF817EB00094E41201E5D
:10028000A4F10104DFDC484631462A464346BDE876
:10029000F09FD2B201E000F8012B491EFBD270475B
:1002A0000022F6E710B513460A4604461946FFF742
:1002B000F0FF204610BD202A04DB203A00FA02F1AC
:1002C000002070479140C2F1200320FA03F3194344
:1002D00090407047202A04DB203A21FA02F00021E6
:1002E000704721FA02F3D040C2F120029140084346
:1002F00019467047064C074D06E0E06840F00103E0
:1003000094E8070098471034AC42F6D3FFF778FF23
:10031000D4220008F4220008FEE7000070B4BFF306
:100320004F8FBFF36F8F1C4900200860BFF34F8FC2
:10033000BFF36F8F194D296841F400312960BFF375
:100340004F8FBFF36F8F16490860BFF34F8F081FA1
:10035000006843F6FF76134AC0F34E3CC0F3C9046D
:1003600006EA4C11204641EA80731360401EFAD21F
:10037000BCF1010CF4D2BFF34F8F286840F48030F9
:100380002860BFF34F8FBFF36F8F0748016841F0BC
:100390000401016070BC704750EF00E014ED00E014
:1003A00084ED00E060EF00E09CEF00E070B50E4CE3
:1003B00001220D4606462021204600F0B4F90B48E4
:1003C0004FF47A732A46314601F060FB0748006813
:1003D000C16911F0400FFBD000222046202100F01F
:1003E000A2F9002070BD000000040240940000202B
:1003F00070474FF4805010B500F05CF8BDE8104035
:100400004FF4005000F056B8704790F835100229AC
:1004100003D08021416501207047052180F8351007
:100420000068016821F001010160002070470000B0
:1004300070B5044600F07CF9B4F1FF3F054602D0E8
:1004400004480078044400F073F9401BA042FAD33A
:1004500070BD00000400002070B504463220FFF794
:10046000E7FF134DB4F5805F12D0B4F5005F18BFFD
:1004700070BD4FF40051284600F04AF9002818BF1B
:1004800070BD4FF400412846BDE8704000F045B90A
:100490004FF48051284600F03BF9002818BF70BD8A
:1004A0004FF480412846BDE8704000F036B90000A6
:1004B0000004024004490A68024208BF704710B5B0
:1004C0000860FFF7C9FF10BD143C01402DE9F84F4B
:1004D0008A4E0023012703240F250A6807FA03F830
:1004E00002EA080CC44540F002814A68012A18BF9C
:1004F000022A03D0112A18BF122A1AD1D0F8089064
:100500004FEA430204FA02FA29EA0A09D1F80CA0D8
:100510000AFA02F242EA09028260426822EA08020A
:1005200091F80480C8F3001808FA03F848EA0202B8
:100530004260D0F80C904FEA4302D1F808A004FAC8
:1005400002F829EA08090AFA02FA4AEA0909C0F88F
:100550000C90D1F80490B9F1020F18BFB9F1120F45
:1005600015D14FEAD30900EB8909D9F820B04FEA39
:10057000437A4FEADA6A05FA0AFE2BEA0E0BD1F843
:1005800010E00EFA0AFA4AEA0B0AC9F820A0D0F8DD
:10059000009029EA080891F8049009F0030909FA83
:1005A00002F242EA080202604A6812F0805F7BD0E1
:1005B000534AD2F8008048F48048C2F8008012689C
:1005C00002F48042009223F0030202F1804808F511
:1005D0009838D8F808284FEA83794FEA197905FA4C
:1005E00009FA22EA0A0AA0F18042B2F500323ED0AE
:1005F000A0F18042B2F5013208BF012237D0A0F14C
:100600008042B2F5023208BF022230D0A0F180420F
:10061000B2F5033208BF032229D0A0F18042B2F51F
:10062000043208BF042222D0A0F18042B2F5053284
:1006300008BF05221BD0A0F18042B2F5063208BFE8
:10064000062214D0A0F18042B2F5073208BF07227B
:100650000DD0A0F18042B2F5083208BF082206D0C2
:10066000A0F18042B2F509320CBF09220A2202FA37
:1006700009F242EA0A02C8F80828DFF88880D8F8A8
:100680000020D1F8049022EA0C0219F4803F18BF30
:1006900042EA0C02C8F800203268D1F8048022EA4D
:1006A0000C0218F4003F00E021E018BF42EA0C02FF
:1006B0003260DFF85480D8F80020D1F8049022EAA4
:1006C0000C0219F4801F18BF42EA0C02C8F800207F
:1006D000DFF83880D8F80020D1F8049022EA0C0224
:1006E00019F4001F18BF42EA0C02C8F800205B1C76
:1006F000102BFFF4F2AEBDE8F88F0000043C01407F
:1007000044380240003C0140083C01400C3C0140A0
:100710000069084018BF0120704742690A4218BFAB
:10072000090481617047002A08BF0904816170478C
:10073000014880687047000004000020024881687A
:10074000027811448160704704000020032010B536
:1007500000F084F8002000F005F800F023F80020F5
:1007600010BD000070B50D4D04464FF47A71287825
:10077000B1FBF0F00A490968B1FBF0F000F002FFAC
:1007800048B9102C07D200222146501E00F034F840
:1007900000206C6070BD012070BD000004000020CE
:1007A000100000200A4881B0016841F080510160CA
:1007B000006800F0805000900648016841F48041D4
:1007C0000160006800F48040009001B070470000B4
:1007D00040380240443802400028B8BF704700F05B
:1007E0001F01012202FA01F14009800000F1E0201E
:1007F000C0F8001170470000174B4DF8044D1B68FE
:10080000C3F30223C3F1070CBCF1040F88BF4FF000
:10081000040C1C1D072C34BF0023DB1E012404FA2A
:100820000CFCACF1010C0CEA0101994004FA03F351
:100830005B1E1A40114300284FEA0111B8BF00F0B7
:100840000F0000F1E020ACBF80F8001480F8141D08
:100850005DF8044B704700000CED00E0074A00F023
:10086000070011684FF6FF03194041EA002040F0ED
:10087000FD7040F080601060704700000CED00E0FB
:100880001C4838B5016841F08051016000681A4C7D
:1008900000F080500090206840F480302060FFF726
:1008A00047FF0546606810F4803F09D1FFF740FF1D
:1008B000401BB0F57A7F14D8606810F4803FF5D003
:1008C000206840F400302060FFF732FF0546606882
:1008D00010F4003F0BD1FFF72BFF401BB0F57A7FE0
:1008E00001D9032038BD606810F4003FF3D0002028
:1008F00038BD0000403802400070004002480168E6
:1009000041F4807101607047007000402DE9F84F9C
:100910000026044600783546DFF880A410F0010F69
:100920000FD0DAF8000020F40000CAF80000DAF86E
:100930000000616B0843CAF80000606B002808BF24
:1009400001262068DFF8588410F4002F10D0D8F862
:100950000000E16B20F440100843C8F80000E06B91
:10096000B0F5801F08BF012602D0002808BF01256E
:10097000206810F4801F10D0D8F80000216C20F4FB
:1009800040000843C8F80000206CB0F5800F08BF95
:10099000012602D0002808BF0125206810F0807FC2
:1009A00018BF012610F0200F71D0FE48016841F0F9
:1009B000805101600068DFF8F09300F080500090F3
:1009C000D9F8000040F48070C9F80000FFF7B0FECD
:1009D0000746D9F8000010F4807F0AD1FFF7A8FE7F
:1009E000C01B642800F26B82D9F8000010F4807FED
:1009F000F4D0DFF8B893D9F8000010F4407031D08B
:100A0000218E01F4407181422CD0D9F80000D9F830
:100A1000001020F4407041F48031C9F80010D9F87A
:100A2000001021F48031C9F80010C9F80000D9F88D
:100A3000000010F0010F15D0FFF77AFE0746D9F835
:100A4000000010F0020F08BF41F2883B0AD1FFF707
:100A50006FFEC01B584500F23282D9F8000010F03A
:100A6000020FF4D0206B4FF4407181431CBFDAF8C1
:100A7000000020F4F81000F0ED80CAF80000D9F86A
:100A80000000218EC1F30B010843C9F80000207853
:100A900010F0100F0BD0D8F8000020F08070C8F8CC
:100AA0000000D8F80000A16B0843C8F800002088B7
:100AB00010F4804FBE4805D00168626E21F44031C9
:100AC00011430160218811F4004F05D00168A26E26
:100AD00021F4402111430160216811F4803F05D0C9
:100AE0000168E26E21F4401111430160216811F4A4
:100AF000003F05D00168226F21F4400111430160DD
:100B0000217811F0400F05D00168626C21F00301DB
:100B100011430160217811F0800F05D00168A26CAB
:100B200021F00C0111430160218811F4807F05D070
:100B30000168E26C21F0300111430160218811F459
:100B4000007F05D00168226D21F0C00111430160D2
:100B5000218811F4806F05D00168626D21F4407125
:100B600011430160218811F4006F05D00168A26D66
:100B700021F4406111430160218811F4805F05D0A8
:100B80000168E26D21F4405111430160218811F4A4
:100B9000005F05D00168226E21F4404111430160DD
:100BA000216811F4800F05D0016821F08062A16FE7
:100BB00011430160216811F4001F0AD00168E26F3F
:100BC00021F0006111430160E16FB1F1006F08BFD6
:100BD0000125216811F0080F18BF012511F4802F9D
:100BE00005D00168626F21F04071114301602168F6
:100BF00011F4000F06D00168D4F8802021F0805154
:100C000011430160216811F0806F06D00168D4F8AB
:100C1000842021F0005111430160206810F0006F22
:100C200008D0D8F80000D4F8881020F000700843ED
:100C3000C8F80000206810F0805F08D0D8F80000E5
:100C4000D4F88C1020F080600843C8F80000594F99
:100C500076B909E0DAF8001020F4407020F0704016
:100C600021F4F811084308E72068B0F1007F7CD137
:100C7000386820F080603860FFF75AFD0646386813
:100C800010F0006F08D0FFF753FD801B64286DD86B
:100C9000386810F0006FF6D12078474910F0010F46
:100CA00011D0606B78B908680A68C0F301406368C6
:100CB000C2F303629B0143EA004040EA0260227AE9
:100CC00040EA02700860206810F4002F03D0E26B45
:100CD000B2F5801F06D010F4801F1CD0206CB0F538
:100CE000800F18D108680A68C0F301406368C2F336
:100CF00002729B0143EA0040237B40EA036040EA22
:100D000002700860D8F80000626A20F01F00521ECE
:100D10001043C8F80000206810F0807F10D00868E9
:100D20000A68C0F303606368B4F810C0C2F30272CB
:100D30009B0143EA0C4343EA006040EA027008600A
:100D4000206810F0007F0BD06068228A800140EAA2
:100D50000240227B40EA0262207A42EA0070086088
:100D6000386840F08060386001E010E08AE0FFF70A
:100D7000DFFC0646386810F0006F08D1FFF7D8FC9A
:100D8000801B64287ED8386810F0006FF6D0EDB371
:100D9000386820F08050386010E0000008380240C9
:100DA0008C380240403802400070004070380240E9
:100DB000903802400038024084380240FFF7B8FC07
:100DC0000546386810F0005F08D0FFF7B1FC401B03
:100DD000642874D8386810F0005FF6D120683D4A66
:100DE00010F4002F01D0E16B21B110F4801F1FD04F
:100DF000206CE8B910681168C0F301406369C1F361
:100E000002719B0143EA0040237E00E05EE040EA7D
:100E1000036040EA01701060D8F800006FF0FF0333
:100E2000A16A20F4F85003EB01210843C8F8000040
:100E3000206810F4001F14D0E06FB0F1006F10D1E3
:100E40001068C0F3036110686369B4F820C0C0F390
:100E500002709B0143EA0C4343EA016141EA0070DE
:100E60001060207810F0080F19D01068C0F30361EB
:100E700010686369C0F301409B0143EA004040EA07
:100E8000016000E01BE0217F40EA01701060D8F8AB
:100E90000000E16A20F440300843C8F800003868D8
:100EA00040F080503860FFF743FC0446386810F08B
:100EB000005F0BD1FFF73CFC001B642802D9032024
:100EC000BDE8F88F386810F0005FF3D00020BDE86F
:100ED000F88F00008838024070470000002804BFE7
:100EE000012070472DE9F047DFF8488104460D46A0
:100EF000D8F8000000F00F00A8420CD2D8F800008B
:100F000020F00F002843C8F80000D8F8000000F0D7
:100F10000F00A84264D12068474F10F0020F14D090
:100F200010F0040F03D0386840F4E05038602078A7
:100F300010F0080F03D0386840F46040386038681B
:100F400020F0F001A06808433860207810F0010F0D
:100F500033D06068394901281FD00968022821D0A0
:100F600011F0020F3CD0396821F0030108433860CA
:100F7000FFF7DEFB06463868616800F00C00B0EB56
:100F8000810F18BF41F2883917D0FFF7D1FB801BC2
:100F900048450BD90320BDE8F087096811F4003FEC
:100FA000E1D11DE011F0007FDDD119E03868616802
:100FB00000F00C00B0EB810FE7D1D8F8000000F092
:100FC0000F00A8420FD9D8F8000020F00F002843E6
:100FD000C8F80000D8F8000000F00F00A84202D0C6
:100FE0000120BDE8F087207810F0040F05D03868A4
:100FF000E16820F4E05008433860207810F0080FD2
:1010000006D03868216920F4604040EAC1003860A9
:1010100000F044F839680A4AC1F30311515CC84032
:101020000849086008480068FFF79CFB0020BDE8FD
:10103000F0870000003C02400838024000380240BF
:10104000BC220008100000200800002002480168AF
:1010500041F400210160704700380240044805490E
:1010600000680968044AC1F38221515CC840704796
:101070001000002008380240CC220008044805492E
:1010800000680968044AC1F34231515CC8407047A6
:101090001000002008380240CC22000818480068E0
:1010A00010F00C01174808BF7047174B042904BF04
:1010B00018467047082918BF704710B5134C2168AF
:1010C00001F03F02216811F4800F08D02068C0F3BE
:1010D0008810A0FB03010023FFF7AAF807E02168AE
:1010E0000023C1F38811A1FB0001FFF7A1F82168DB
:1010F000C1F30141491C4900B0FBF1F010BD0000F3
:10110000083802400024F40040787D010438024091
:101110000648006810F0800F08BF704710B5FFF751
:10112000DBFE03498020087010BD00000C3802402F
:101130000E3802402DE9F84F04004FF0000700F090
:101140000F82DFF828842078A8F1040610F0010F40
:10115000A6F104055CD0D8F8000000F00C000428CB
:1011600009D0D8F8000000F00C0008280CD1306835
:1011700010F4800F08D0286810F4003F48D0606851
:10118000002800F0ED8143E06068B0F5803F04BFC7
:10119000286840F480300AD010B1B0F5A02F11D0EB
:1011A000286820F480302860286820F48020286097
:1011B0006068D8B1FFF7BCFA8146286810F4003F98
:1011C00008D025E0286840F480202860286840F492
:1011D0008030ECE7FFF7ACFAA0EB0900642800F2DE
:1011E0004F81286810F4003FF4D011E0FFF7A0FA17
:1011F0008146286810F4003F0AD0FFF799FAA0EB67
:101200000900642800F23C81286810F4003FF4D102
:10121000207810F0020F4CD0D8F8000010F00C0F1E
:1012200018D0D8F8000000F00C00082804BF30687F
:1012300010F4800F0ED0E0680028286825D040F018
:1012400001002860FFF774FA8146286810F0020F49
:1012500009D012E0286810F0020F1CBFE0680128D6
:101260000BD000F07DB9FFF763FAA0EB090002286C
:101270007ED8286810F0020FF5D02868216920F088
:10128000F80040EAC100286013E020F00100286067
:10129000FFF74EFA8146286810F0020F09D0FFF7D9
:1012A00047FAA0EB0900022862D8286810F0020F64
:1012B000F5D1207810F0080F35D0DFF8B4A26069BE
:1012C0000028DAF8000017D040F00100CAF800004A
:1012D000FFF72EFA8146DAF8000010F0020F22D153
:1012E000FFF726FAA0EB0900022841D8DAF800003F
:1012F00010F0020FF4D016E020F00100CAF8000050
:10130000FFF716FA8146DAF8000010F0020F0AD053
:10131000FFF70EFAA0EB0900022829D8DAF800003E
:1013200010F0020FF4D1207810F0040F71D0DFF824
:1013300044A2DAF8000010F0805F0BD1DAF8000068
:1013400040F08050CAF80000DAF80000012700F0F1
:1013500080500090DFF820B2DBF8000010F4807FAE
:101360001AD1DBF8000040F48070CBF8000000E0F8
:1013700086E0FFF7DDF98146DBF8000010F4807F9E
:101380000AD1FFF7D5F9A0EB0900642878D8DBF87B
:10139000000010F4807FF4D0A068DFF8E0B10128ED
:1013A00004BFDBF8000040F001000CD008B10528B4
:1013B00016D0DBF8000020F00100CBF80000DBF8CD
:1013C000000020F00400CBF80000A06810B3FFF785
:1013D000AFF98146DBF8000010F0020F0BD02EE0D1
:1013E000DBF8000040F00400CBF80000DBF8000060
:1013F00040F00100E7E7FFF79BF9A0EB090141F29C
:10140000883081423CD8DBF8000010F0020FF2D0A7
:1014100015E01BE0FFF78CF98146DBF8000010F0C7
:10142000020F0CD0FFF784F9A0EB090141F28830DC
:10143000814225D8DBF8000010F0020FF2D12FB165
:10144000DAF8000020F08050CAF80000A169E9B382
:10145000D8F8000000F00C00082855D028680229B0
:1014600020F0807028600ED0FFF762F904462868EB
:1014700010F0007F77D0FFF75BF9001B02283ED900
:101480000320BDE8F88FFFF753F90746286810F0EE
:10149000007F08D0FFF74CF9C01B0228F0D828685D
:1014A00010F0007FF6D1D4E90701354A0843A16A5C
:1014B000490802EB0141626A41EA8211084394F84B
:1014C0002C1040EA016094F8301000E04BE040EA54
:1014D00001703060286840F080702860FFF728F9BC
:1014E0000446286810F0007F3DD1FFF721F9001B6A
:1014F0000228C5D8286810F0007FF6D033E02868AD
:1015000010F0007FB7D12EE03068012928D0E269C1
:1015100000F48001914223D1226A00F03F01914200
:101520001ED1626A47F6C0710140B1EB821F17D12C
:10153000A26A4FF0FF3300F4403103EB5202B1EBEB
:10154000024F0DD194F82C2000F07061B1EB026FC6
:1015500006D194F8301000F0E040B0EB017F02D0EB
:101560000120BDE8F88F0020BDE8F88F0838024060
:101570007438024040380240007000407038024029
:101580000000FFFF401EB0F1807F24BF01207047A4
:101590004FF0E0214861F020044A82F8140D002049
:1015A0008861072008610020704700000FE000E01C
:1015B000704770472DE9F04102680446D069116810
:1015C000936840F60F0C10EA0C0F4FF000054FF037
:1015D00020060BD110F0200F18BF11F0200F7DD086
:1015E000216E002908BFBDE8F081ACE003F0010CDA
:1015F00001F490775CEA070770D010F0010F18BF74
:1016000011F4807F05D001271762E26F42F00102DA
:10161000E26710F0020F18BF13F0010F06D0276821
:1016200002223A62E26F42F00402E26710F0040F15
:1016300018BF13F0010F06D0236804221A62E26F6C
:1016400042F00202E26710F0080F1CBF01F0200216
:1016500052EA0C0206D0236808221A62E26F42F0B6
:101660000802E26710F4006F18BF11F0806F07D016
:1016700023684FF400621A62E26F42F02002E267D0
:10168000E26F002A08BFBDE8F08110F0200F18BFFC
:1016900011F0200F04D0216E00291CBF204688477E
:1016A000E16F2068826812F0400F08BF11F0280F28
:1016B0002AD0016821F4907101602068816821F0CE
:1016C00001018160A66725662068816811F0400FDE
:1016D00015D0816821F04001816000E01AE0E06EE1
:1016E00068B124490165E06EFEF78FFE002808BF4F
:1016F000BDE8F081E06E016DBDE8F041084720468D
:10170000FFF757FFBDE8F0812046FFF752FFE5677E
:10171000BDE8F08110F4801F18BF13F4800F07D0CC
:101720004FF4801010622046FFF742FFBDE8F081C1
:1017300010F0800F18BF11F0800F08D0616E0029E3
:1017400008BFBDE8F0812046BDE8F041084710F031
:10175000400F14BF11F0400FBDE8F0812046116822
:1017600021F0400111606667656600F0F3F9BDE89D
:10177000F0810000AF1D0008002804BF0120704761
:1017800010B50446406F28B9002084F87000204648
:1017900000F028F8242060672068016821F001012A
:1017A0000160204600F06AFB012808BF10BD606A96
:1017B00000281CBF204600F05FFA2068416821F431
:1017C000904141602068816821F02A018160206891
:1017D000016841F0010101602046BDE8104000F0C1
:1017E000B8BA000070B586B0434B0021434A0324C9
:1017F0004FF0020C00910725019102910391049191
:1018000001683F48A1F18046B6F5A04630D0A1F16D
:101810008046B6F588364BD0A1F18040B0F59840AF
:101820001CBF06B070BD186840F40020186018682E
:1018300000F400200590106840F00100106010686E
:10184000694600F0010005904FF4C050CDE9000C4E
:101850000620CDE903402B48FEF738FE0022012187
:101860003420FEF7C9FF3420FEF7B6FF06B070BD86
:10187000196841F480111960196801F4801105910B
:10188000116841F002011160116801F00201059137
:101890004FF44071CDE9001CCDE903456946FEF7E0
:1018A00015FE002201213520FEF7A6FF35201EE09F
:1018B00015490B6843F010030B60096801F0100133
:1018C0000591116841F002011160116801F00201F7
:1018D0000591C021CDE9001CCDE903456946FEF71D
:1018E000F5FD002202212520FEF786FF2520FEF7C8
:1018F00073FF06B070BD000040380240303802402F
:10190000000402400000024044380240836F202B54
:1019100052D1002912BF002A0120704790F8703080
:10192000012B49D0012380F870304165A0F8582080
:10193000A0F85A2000220266FF238168B1F5805F7B
:1019400023D04FF07F0C39B3B1F1805F18BFA0F8FE
:101950005C2026D0C2672221816701688B6843F032
:1019600001038B608168B1F5805F05BF01690029C3
:1019700012491349016680F870200068016841F43B
:10198000907101604FF0000070470169002908BFA5
:1019900040F2FF1102D109E0016951B9A0F85C30B1
:1019A000D8E70169002918BF3F2102D0A0F85C10D8
:1019B000D0E7A0F85CC0CDE7022070471F1E0008EA
:1019C000C31D000810B5044625A084B0D0E900105E
:1019D000CDE900102068A0F18041B1F5A04114D1FB
:1019E00021A002224FF47A73006802A902902046D7
:1019F00000F04CF81D480168CA6912F0400FFBD096
:101A00001B4902221948FFF781FF2068A0F180419D
:101A1000B1F5883111D104216846FEF7C7FC15489D
:101A20000121FEF7C3FC14484FF44041FEF775FE58
:101A3000104901221148FFF769FF2068A0F1804199
:101A4000B1F598411CBF04B010BD01200C496422BF
:101A500008700C490C48FFF759FF04B010BD000096
:101A60004F4B0D0A000000004F4B000014000020F7
:101A7000000000200200002000040240940000202A
:101A80000300002014010020780100202DE9F84314
:101A90000446406F1F4615460E46202857D1002E9B
:101AA00012BF002D0120BDE8F88394F870000128D2
:101AB0004DD0012084F870004FF00009C4F87C90EC
:101AC00021206067FEF734FEA4F850508046A4F849
:101AD0005250A068B0F5805F03BF20690028002540
:101AE000354618BF002684F87090B4F85200B8B19B
:101AF00043464FF000024FF080012046009700F06F
:101B000015FBA8B9BDB1216815F8010B8862B4F8BE
:101B10005200401EA4F85200B4F852000028E7D149
:101B20000022434640212046009700F0FFFA48B1CA
:101B30000320BDE8F883216836F8020BC0F30800E3
:101B40008862E4E7202060670020BDE8F883022077
:101B5000BDE8F8837047FEE7FEE7FFF7D9BA7047A4
:101B60007047FEF7EBBD000030B5B7B00024684603
:101B700090212494259426942794289429942A9497
:101B80002B942C942D942E942F9430943194329441
:101B9000339434943594FEF783FBFEF7AFFE274869
:101BA000016841F080510160006800F0805036907B
:101BB0002348016841F4404101600068022500F4B7
:101BC0004040369001202490000425908001CDE90A
:101BD0002A5019202C904FF4D870CDE92D0524A857
:101BE0002F95FFF7A7FA002818BFFEF70DFCFEF7A8
:101BF00047FE002818BFFEF707FC0F20CDE931058E
:101C00004FF4A0500721CDE933404FF48050359078
:101C100031A8FFF763F9002818BFFEF7F5FB4FF472
:101C20008060159400906846FEF770FE002818BF8B
:101C3000FEF7EAFBFFF70AFA37B030BD4038024042
:101C4000007000400448016841F4700101600349DC
:101C50004FF000600860704788ED00E008ED00E09C
:101C60000148FFF7A7BC0000780100200148FFF7FA
:101C7000A1BC00001400002090F8241011F0010F06
:101C800006D001684A68836A22F400321A434A6027
:101C900090F8241011F0020F06D001684A68C36A58
:101CA00022F480321A434A6090F8241011F0040F95
:101CB00006D001684A68036B22F480221A434A6006
:101CC00090F8241011F0080F06D001684A68436BA1
:101CD00022F400421A434A6090F8241011F0100FC9
:101CE00006D001688A68836B22F480521A438A60A6
:101CF00090F8241011F0200F06D001688A68C36B99
:101D000022F400521A438A6090F8241011F0400F18
:101D100011D001684A68036C22F480121A434A60A9
:101D2000016CB1F5801F06D101684A68436C22F44A
:101D3000C0021A434A6090F8241011F0800F08BFC7
:101D4000704701684A68806C22F4002210434860A2
:101D50007047F8B500260446C667FEF7E9FC07465B
:101D6000206800686FF07E4510F0080F08D0002250
:101D70003B464FF400112046009500F0D7F968B9B2
:101D80002068006810F0040F0AD000223B464FF490
:101D900080012046009500F0C9F908B10320F8BD84
:101DA00020206067A067002084F87060F8BD10B53F
:101DB000806B0021A0F85A10A0F85210FFF7F9FB31
:101DC00010BD10B5B0F85C20836F0168222B04D0E1
:101DD000886940F00800886110BD496A436D114070
:101DE0001980416D891C4165B0F85A10491EA0F850
:101DF0005A10B0F85A10002918BF10BD01680A68BF
:101E000022F490720A6001688A6822F001028A60F6
:101E10002021816700210166FFF7D4FD10BD10B5B8
:101E2000B0F85C20836F0168222B04D0886940F0F1
:101E30000800886110BD496A1140426D1170416D02
:101E4000491C4165B0F85A10491EA0F85A10B0F864
:101E50005A10002918BF10BD01680A6822F4907258
:101E60000A6001688A6822F001028A602021816785
:101E700000210166FFF7A6FD10BD000070B5044605
:101E8000002005462269A168E369114362691A438B
:101E90000A4321680B68DFF884C203EA0C031A4383
:101EA0000A6021684A68E36822F440521A434A6093
:101EB000226AA1690A4321688B6823F430631A43BC
:101EC0008A602168964AA1F18043B3F5883323D014
:101ED000A1F18043B3F5884329D0A1F18043B3F544
:101EE00090432FD0A1F18043B3F5984335D0A1F1B1
:101EF0008043B3F5A0433BD0A1F18043B3F58A33CF
:101F000044D0A1F18043B3F5F0434FD0A1F1804319
:101F1000B3F5F84358D064E0116811F0030143D0E1
:101F2000012972D002295DD0032970D059E01168CF
:101F300011F00C0118BF042954D0082961D00C29D4
:101F400065D04EE0116811F030014BD010295CD003
:101F5000202956D030295AD043E0116811F0C00131
:101F600040D0402951D080294BD0C0294FD038E0F3
:101F7000116811F4407135D0B1F5807F45D0B1F5CD
:101F8000007F3ED0B1F5407F41D02AE0116811F4C6
:101F9000406109D0B1F5806F37D0B1F5006F30D016
:101FA000B1F5406F33D01CE001211BE0116811F442
:101FB000405117D0B1F5805F27D0B1F5005F20D038
:101FC000B1F5405F23D00CE0116811F4404109D015
:101FD000B1F5804F19D0B1F5004F12D0B1F5404F97
:101FE00015D01021E2694FF6EF76B2F5004F10D010
:101FF000092970D2DFE801F0535D67837083838322
:102000007A000221EEE700E001E00421EAE708217E
:10201000E8E7092935D2DFE801F0050F193421344A
:1020200034342B00FFF71AF84100606801EB5001CF
:10203000B1FBF0F080B225E0FFF720F841006068C6
:1020400001EB5001B1FBF0F080B21BE06068354954
:1020500001EB5001B1FBF0F080B213E0FFF71EF886
:102060004100606801EB5001B1FBF0F080B209E083
:1020700060684FF4803101EB5001B1FBF0F080B2A9
:1020800000E00125A0F11001B14240D84FF6F071F7
:102090000140C0F3420008432168C86038E0FEF701
:1020A000DDFF0146606801EB5001B1FBF0F080B24A
:1020B00026E0FEF7E3FF0146606801EB5001B1FB4B
:1020C000F0F080B21CE06068174901EB5001B1FBF1
:1020D000F0F080B214E012E0FEF7E0FF0146606825
:1020E00001EB5001B1FBF0F080B209E060684FF401
:1020F000004101EB5001B1FBF0F080B200E001259E
:10210000A0F11001B1429CBF2168C86000D901252F
:10211000002020666066284670BD0000F369FFEF6E
:10212000903802400048E8010024F4002DE9F0470F
:102130000446006898461646089D0F46C06931EA75
:1021400000000CBF01200020B04204BF4FF0000A85
:102150004FF0200947D1B5F1FF3F3BD0FEF7E8FA39
:10216000A0EB0800A84222D80DB32068016811F046
:10217000040F1CBFC06910F4006F2BD021684FF40E
:10218000006008622068016821F4D0710160206855
:10219000816821F001018160C4F87490C4F87890DE
:1021A000C4F87C90032084F870A0BDE8F087206814
:1021B000016821F4D07101602068816821F001017B
:1021C0008160C4F87490C4F87890032084F870A0FB
:1021D000BDE8F0872068C06937EA00000CBF012025
:1021E0000020B042B7D00020BDE8F0870148FFF7DB
:1021F000E1B900009400002010490F4A10B5C1E970
:1022000000200C2200208860C860C1E904024FF45D
:102210000042C1E90602086248620846FFF7ACFACC
:10222000002818BFFEF7F0F864220549BDE8104009
:1022300001F16400FFF76ABB004C00407801002008
:10224000140100200A46014606484FF47A7310B57F
:10225000FFF71CFC03480068C16911F0400FFBD078
:1022600010BD000078010020FEE702E008C8121F40
:1022700008C1002AFAD170477047002001E001C16F
:10228000121F002AFBD17047FEF748F8FEF75EFAEE
:10229000FFF76AFC0648FFF7AFFF064C00252078E1
:1022A0000028FCD004486421FFF7CCFF2570F6E736
:1022B00070991400030000201401002000000000A9
:1022C00000000000010203040607080900000000E6
:1022D00001020304F42200080000002014000000A2
:1022E0006A2200080823000814000020E40500000A
:1022F0007A22000800000000010000001000000029
:08230000000000000024F400BD
:04000005080001F9F5
:00000001FF
