:020000040800F2
:10000000A00700200D020008331D0008BB1C0008DB
:10001000311D00083D0300083D24000800000000D9
:10002000000000000000000000000000391D000872
:100030000505000800000000371D00083B1D0008F2
:1000400027020008270200082702000827020008EC
:1000500027020008270200082702000827020008DC
:1000600027020008270200082702000827020008CC
:1000700027020008270200082702000827020008BC
:1000800027020008270200082702000827020008AC
:10009000270200082702000827020008270200089C
:1000A000270200082702000827020008270200088C
:1000B000270200082702000827020008270200087C
:1000C000270200082702000827020008270200086C
:1000D00027020008C523000827020008270200089D
:1000E000510500082702000827020008270200081F
:1000F000270200082702000827020008270200083C
:10010000270200082702000827020008270200082B
:10011000391E0008451E00082702000827020008B3
:10012000270200082702000827020008270200080B
:1001300027020008270200082702000827020008FB
:1001400027020008270200082702000827020008EB
:1001500027020008270200082702000827020008DB
:1001600027020008270200082702000827020008CB
:1001700027020008270200082702000800000000EC
:1001800027020008270200082702000827020008AB
:10019000270200082702000827020008270200089B
:1001A000270200082702000827020008270200088B
:1001B000270200082702000827020008270200087B
:1001C000270200082702000800000000270200089C
:1001D000270200082702000827020008270200085B
:1001E000270200082702000827020008270200084B
:1001F0002702000827020008DFF80CD000F08CF876
:1002000000480047AD240008A007002006488047AA
:1002100006480047FEE7FEE7FEE7FEE7FEE7FEE7EB
:10022000FEE7FEE7FEE7FEE71D1E0008F9010008F5
:100230002DE9F05F0546002092469B46884606461B
:10024000814640241BE0284641464746224600F0AE
:1002500053F853465A46C01A914110D311461846D6
:10026000224600F03AF82D1A67EB01084F46224665
:100270000120002100F031F817EB00094E41201E4B
:10028000A4F10104DFDC484631462A464346BDE876
:10029000F09F40EA01039B0703D009E008C9121F41
:1002A00008C0042AFAD203E011F8013B00F8013B30
:1002B000521EF9D27047D2B201E000F8012B491E5C
:1002C000FBD270470022F6E710B513460A460446F3
:1002D0001946FFF7F0FF204610BD202A04DB203A24
:1002E00000FA02F1002070479140C2F1200320FA89
:1002F00003F3194390407047202A04DB203A21FA87
:1003000002F00021704721FA02F3D040C2F120022E
:100310009140084319467047064C074D06E0E068D7
:1003200040F0010394E8070098471034AC42F6D33C
:10033000FFF766FFEC2700080C280008FEE7000026
:1003400070B586B01E4900240546009401940294BD
:1003500003940494086840F00200086008682021B3
:10036000184E224600F002000590304600F089FA4F
:100370002020009001206946CDE901043046039415
:1003800000F052F91149104808600C20C1E90154ED
:10039000CC60C1E904408C610846CC610C624C62BF
:1003A00001F098FA20B100F0DEF806B0012070BD2F
:1003B00007490122054801F057FB06B0002070BD37
:1003C0003038024000040240001001409C00002030
:1003D000020000202DE9F04147880546ADF5007D7B
:1003E000F81D00F0FF082E78404602F0BDF80446E4
:1003F0004146FFF767FFFF2121706170FD20A0706B
:100400000020E0702671A87860716888000AA071E9
:100410002879032FE0710CD90820791D082908D903
:10042000AA68A0F10803D25C2254401C80B2814229
:10043000F6D8688800261F494FF40072401D85B227
:100440006846FFF726FF0020002D88BF6A460BD9BB
:10045000215C401C80B281EA1621854232F81110DD
:1004600081EA06218EB2F3D8E019310A01224671E1
:100470008171F81D104EC5B22021304600F001FAFE
:100480000E484FF47A732A46214601F0B1FB0B481F
:100490000068C16911F0400FFBD0002230462021D6
:1004A00000F0EFF9204601F0D9FF0DF5007D0020A6
:1004B000BDE8F081D4250008000402409C00002023
:1004C00070B50E4C01220D4606462021204600F054
:1004D000D8F90B484FF47A732A46314601F088FB6D
:1004E00007480068C16911F0400FFBD00022204688
:1004F000202100F0C6F9002070BD00000004024079
:100500009C000020704700000F490E4A10B5C1E959
:1005100000200C2200208860C860C1E904028861C4
:10052000C86108624862084601F0D4F9002818BF83
:1005300000F019F802220549BDE81040024801F018
:1005400093BA0000005000401C0000200000002072
:100550004FF4805010B500F05BF8BDE810404FF448
:10056000005000F055B8704790F83510022903D0BC
:100570008021416501207047052180F83510006811
:10058000016821F0010101600020704770B5044648
:1005900000F07CF9B4F1FF3F054602D00448007832
:1005A000044400F073F9401BA042FAD370BD000070
:1005B0000400002070B504463220FFF7E7FF134D1A
:1005C000B4F5805F12D0B4F5005F18BF70BD4FF472
:1005D0000051284600F04AF9002818BF70BD4FF4BA
:1005E00000412846BDE8704000F045B94FF4805105
:1005F000284600F03BF9002818BF70BD4FF4804139
:100600002846BDE8704000F036B900000004024002
:1006100004490A68024208BF704710B50860FFF736
:10062000C9FF10BD143C01402DE9F84F8A4E00234C
:10063000012703240F250A6807FA03F802EA080CC9
:10064000C44540F002814A68012A18BF022A03D03B
:10065000112A18BF122A1AD1D0F808904FEA430283
:1006600004FA02FA29EA0A09D1F80CA00AFA02F2FD
:1006700042EA09028260426822EA080291F8048094
:10068000C8F3001808FA03F848EA02024260D0F8FA
:100690000C904FEA4302D1F808A004FA02F829EAC4
:1006A00008090AFA02FA4AEA0909C0F80C90D1F8D6
:1006B0000490B9F1020F18BFB9F1120F15D14FEA2A
:1006C000D30900EB8909D9F820B04FEA437A4FEA01
:1006D000DA6A05FA0AFE2BEA0E0BD1F810E00EFAE0
:1006E0000AFA4AEA0B0AC9F820A0D0F8009029EAD1
:1006F000080891F8049009F0030909FA02F242EAA5
:10070000080202604A6812F0805F7BD0534AD2F838
:10071000008048F48048C2F80080126802F48042E9
:10072000009223F0030202F1804808F59838D8F8C7
:1007300008284FEA83794FEA197905FA09FA22EA7B
:100740000A0AA0F18042B2F500323ED0A0F1804208
:10075000B2F5013208BF012237D0A0F18042B2F5D4
:10076000023208BF022230D0A0F18042B2F503323B
:1007700008BF032229D0A0F18042B2F5043208BF9D
:10078000042222D0A0F18042B2F5053208BF052232
:100790001BD0A0F18042B2F5063208BF062214D069
:1007A000A0F18042B2F5073208BF07220DD0A0F1B8
:1007B0008042B2F5083208BF082206D0A0F180427C
:1007C000B2F509320CBF09220A2202FA09F242EA02
:1007D0000A02C8F80828DFF88880D8F80020D1F885
:1007E000049022EA0C0219F4803F18BF42EA0C027E
:1007F000C8F800203268D1F8048022EA0C0218F40C
:10080000003F00E021E018BF42EA0C023260DFF84E
:100810005480D8F80020D1F8049022EA0C0219F490
:10082000801F18BF42EA0C02C8F80020DFF83880A9
:10083000D8F80020D1F8049022EA0C0219F4001F25
:1008400018BF42EA0C02C8F800205B1C102BFFF412
:10085000F2AEBDE8F88F0000043C0140443802408D
:10086000003C0140083C01400C3C0140006908404C
:1008700018BF0120704742690A4218BF090481610C
:100880007047002A08BF09048161704701488068E9
:10089000704700000400002002488168027811447B
:1008A0008160704704000020032010B500F084F838
:1008B000002000F005F800F023F8002010BD000033
:1008C00070B50D4D04464FF47A712878B1FBF0F005
:1008D0000A490968B1FBF0F000F002FF48B9102C9A
:1008E00007D200222146501E00F034F800206C6030
:1008F00070BD012070BD0000040000201000002029
:100900000A4881B0016841F080510160006800F040
:10091000805000900648016841F480410160006801
:1009200000F48040009001B0704700004038024061
:10093000443802400028B8BF704700F01F01012270
:1009400002FA01F14009800000F1E020C0F8001136
:1009500070470000174B4DF8044D1B68C3F302238A
:10096000C3F1070CBCF1040F88BF4FF0040C1C1D31
:10097000072C34BF0023DB1E012404FA0CFCACF16D
:10098000010C0CEA0101994004FA03F35B1E1A40C2
:10099000114300284FEA0111B8BF00F00F0000F129
:1009A000E020ACBF80F8001480F8141D5DF8044B03
:1009B000704700000CED00E0074A00F007001168E6
:1009C0004FF6FF03194041EA002040F0FD7040F06F
:1009D00080601060704700000CED00E01C4838B5E6
:1009E000016841F08051016000681A4C00F08050AD
:1009F0000090206840F480302060FFF747FF0546F4
:100A0000606810F4803F09D1FFF740FF401BB0F54C
:100A10007A7F14D8606810F4803FF5D0206840F4E5
:100A200000302060FFF732FF0546606810F4003F99
:100A30000BD1FFF72BFF401BB0F57A7F01D90320C4
:100A400038BD606810F4003FF3D0002038BD0000CE
:100A500040380240007000400248016841F4807153
:100A600001607047007000402DE9F84F00260446F1
:100A700000783546DFF880A410F0010F0FD0DAF8C7
:100A8000000020F40000CAF80000DAF80000616BF2
:100A90000843CAF80000606B002808BF01262068E0
:100AA000DFF8588410F4002F10D0D8F80000E16B64
:100AB00020F440100843C8F80000E06BB0F5801F38
:100AC00008BF012602D0002808BF0125206810F4C5
:100AD000801F10D0D8F80000216C20F4400008439B
:100AE000C8F80000206CB0F5800F08BF012602D0C6
:100AF000002808BF0125206810F0807F18BF01265C
:100B000010F0200F71D0FE48016841F08051016063
:100B10000068DFF8F09300F080500090D9F80000F2
:100B200040F48070C9F80000FFF7B0FE0746D9F81E
:100B3000000010F4807F0AD1FFF7A8FEC01B6428D4
:100B400000F26B82D9F8000010F4807FF4D0DFF857
:100B5000B893D9F8000010F4407031D0218E01F420
:100B6000407181422CD0D9F80000D9F8001020F44F
:100B7000407041F48031C9F80010D9F8001021F418
:100B80008031C9F80010C9F80000D9F8000010F051
:100B9000010F15D0FFF77AFE0746D9F8000010F0D4
:100BA000020F08BF41F2883B0AD1FFF76FFEC01B5E
:100BB000584500F23282D9F8000010F0020FF4D04C
:100BC000206B4FF4407181431CBFDAF8000020F421
:100BD000F81000F0ED80CAF80000D9F80000218E6E
:100BE000C1F30B010843C9F80000207810F0100F82
:100BF0000BD0D8F8000020F08070C8F80000D8F8BA
:100C00000000A16B0843C8F80000208810F4804F52
:100C1000BE4805D00168626E21F440311143016085
:100C2000218811F4004F05D00168A26E21F4402103
:100C300011430160216811F4803F05D00168E26E24
:100C400021F4401111430160216811F4003F05D0E7
:100C50000168226F21F4400111430160217811F0F5
:100C6000400F05D00168626C21F00301114301605F
:100C7000217811F0800F05D00168A26C21F00C01E1
:100C800011430160218811F4807F05D00168E26C76
:100C900021F0300111430160218811F4007F05D05B
:100CA0000168226D21F0C00111430160218811F417
:100CB000806F05D00168626D21F4407111430160BD
:100CC000218811F4006F05D00168A26D21F4406104
:100CD00011430160218811F4805F05D00168E26D45
:100CE00021F4405111430160218811F4005F05D0C7
:100CF0000168226E21F4404111430160216811F422
:100D0000800F05D0016821F08062A16F114301605E
:100D1000216811F4001F0AD00168E26F21F0006120
:100D200011430160E16FB1F1006F08BF0125216837
:100D300011F0080F18BF012511F4802F05D00168AC
:100D4000626F21F0407111430160216811F4000FBE
:100D500006D00168D4F8802021F080511143016051
:100D6000216811F0806F06D00168D4F8842021F04A
:100D7000005111430160206810F0006F08D0D8F8CE
:100D80000000D4F8881020F000700843C8F8000074
:100D9000206810F0805F08D0D8F80000D4F88C10DC
:100DA00020F080600843C8F80000594F76B909E088
:100DB000DAF8001020F4407020F0704021F4F811AF
:100DC000084308E72068B0F1007F7CD1386820F044
:100DD00080603860FFF75AFD0646386810F0006FF3
:100DE00008D0FFF753FD801B64286DD8386810F0D9
:100DF000006FF6D12078474910F0010F11D0606BD9
:100E000078B908680A68C0F301406368C2F30362F6
:100E10009B0143EA004040EA0260227A40EA027005
:100E20000860206810F4002F03D0E26BB2F5801F39
:100E300006D010F4801F1CD0206CB0F5800F18D1A4
:100E400008680A68C0F301406368C2F302729B013C
:100E500043EA0040237B40EA036040EA02700860F6
:100E6000D8F80000626A20F01F00521E1043C8F834
:100E70000000206810F0807F10D008680A68C0F376
:100E800003606368B4F810C0C2F302729B0143EAC6
:100E90000C4343EA006040EA02700860206810F0EA
:100EA000007F0BD06068228A800140EA0240227BEA
:100EB00040EA0262207A42EA00700860386840F036
:100EC0008060386001E010E08AE0FFF7DFFC064652
:100ED000386810F0006F08D1FFF7D8FC801B642839
:100EE0007ED8386810F0006FF6D0EDB3386820F087
:100EF0008050386010E00000083802408C38024012
:100F00004038024000700040703802409038024083
:100F10000038024084380240FFF7B8FC05463868C4
:100F200010F0005F08D0FFF7B1FC401B642874D8B4
:100F3000386810F0005FF6D120683D4A10F4002FA9
:100F400001D0E16B21B110F4801F1FD0206CE8B9F3
:100F500010681168C0F301406369C1F302719B011D
:100F600043EA0040237E00E05EE040EA036040EA9E
:100F700001701060D8F800006FF0FF03A16A20F440
:100F8000F85003EB01210843C8F80000206810F472
:100F9000001F14D0E06FB0F1006F10D11068C0F3E3
:100FA000036110686369B4F820C0C0F302709B014C
:100FB00043EA0C4343EA016141EA00701060207883
:100FC00010F0080F19D01068C0F30361106863694E
:100FD000C0F301409B0143EA004040EA016000E0A9
:100FE0001BE0217F40EA01701060D8F80000E16A40
:100FF00020F440300843C8F80000386840F08050C2
:101000003860FFF743FC0446386810F0005F0BD1EE
:10101000FFF73CFC001B642802D90320BDE8F88FD1
:10102000386810F0005FF3D00020BDE8F88F0000B2
:101030008838024070470000002804BF0120704734
:101040002DE9F047DFF8488104460D46D8F8000046
:1010500000F00F00A8420CD2D8F8000020F00F00DA
:101060002843C8F80000D8F8000000F00F00A8429C
:1010700064D12068474F10F0020F14D010F0040F15
:1010800003D0386840F4E0503860207810F0080F42
:1010900003D0386840F460403860386820F0F001D0
:1010A000A06808433860207810F0010F33D06068E2
:1010B000394901281FD00968022821D011F0020FF8
:1010C0003CD0396821F0030108433860FFF7DEFBAC
:1010D00006463868616800F00C00B0EB810F18BF5D
:1010E00041F2883917D0FFF7D1FB801B48450BD957
:1010F0000320BDE8F087096811F4003FE1D11DE04D
:1011000011F0007FDDD119E03868616800F00C0053
:10111000B0EB810FE7D1D8F8000000F00F00A84233
:101120000FD9D8F8000020F00F002843C8F80000BD
:10113000D8F8000000F00F00A84202D00120BDE85E
:10114000F087207810F0040F05D03868E16820F4AB
:10115000E05008433860207810F0080F06D0386857
:10116000216920F4604040EAC100386000F044F892
:1011700039680A4AC1F30311515CC8400849086044
:1011800008480068FFF79CFB0020BDE8F0870000DE
:10119000003C02400838024000380240D4270008D2
:1011A00010000020080000200248016841F40021DE
:1011B000016070470038024004480549006809682A
:1011C000044AC1F38221515CC840704710000020DE
:1011D00008380240E4270008044805490068096807
:1011E000044AC1F34231515CC840704710000020EE
:1011F00008380240E42700081848006810F00C0185
:10120000174808BF7047174B042904BF184670479A
:10121000082918BF704710B5134C216801F03F0230
:10122000216811F4800F08D02068C0F38810A0FB5B
:1012300003010023FEF7FCFF07E021680023C1F350
:101240008811A1FB0001FEF7F3FF2168C1F3014102
:10125000491C4900B0FBF1F010BD00000838024005
:101260000024F40040787D010438024006480068FC
:1012700010F0800F08BF704710B5FFF7DBFE034981
:101280008020087010BD00000C3802400E3802406B
:101290002DE9F84F04004FF0000700F00F82DFF84F
:1012A00028842078A8F1040610F0010FA6F10405A7
:1012B0005CD0D8F8000000F00C00042809D0D8F861
:1012C000000000F00C0008280CD1306810F4800FEA
:1012D00008D0286810F4003F48D06068002800F06B
:1012E000ED8143E06068B0F5803F04BF286840F4BA
:1012F00080300AD010B1B0F5A02F11D0286820F4AA
:1013000080302860286820F4802028606068D8B188
:10131000FFF7BCFA8146286810F4003F08D025E0AA
:10132000286840F480202860286840F48030ECE78A
:10133000FFF7ACFAA0EB0900642800F24F8128689F
:1013400010F4003FF4D011E0FFF7A0FA81462868BE
:1013500010F4003F0AD0FFF799FAA0EB09006428C7
:1013600000F23C81286810F4003FF4D1207810F09E
:10137000020F4CD0D8F8000010F00C0F18D0D8F89D
:10138000000000F00C00082804BF306810F4800F43
:101390000ED0E0680028286825D040F001002860C1
:1013A000FFF774FA8146286810F0020F09D012E0A6
:1013B000286810F0020F1CBFE06801280BD000F075
:1013C0007DB9FFF763FAA0EB090002287ED82868F0
:1013D00010F0020FF5D02868216920F0F80040EAEB
:1013E000C100286013E020F001002860FFF74EFAEA
:1013F0008146286810F0020F09D0FFF747FAA0EBEA
:101400000900022862D8286810F0020FF5D1207870
:1014100010F0080F35D0DFF8B4A260690028DAF8C0
:10142000000017D040F00100CAF80000FFF72EFAC4
:101430008146DAF8000010F0020F22D1FFF726FAF9
:10144000A0EB0900022841D8DAF8000010F0020FE2
:10145000F4D016E020F00100CAF80000FFF716FAF9
:101460008146DAF8000010F0020F0AD0FFF70EFAFA
:10147000A0EB0900022829D8DAF8000010F0020FCA
:10148000F4D1207810F0040F71D0DFF844A2DAF81C
:10149000000010F0805F0BD1DAF8000040F08050BF
:1014A000CAF80000DAF80000012700F08050009030
:1014B000DFF820B2DBF8000010F4807F1AD1DBF8EF
:1014C000000040F48070CBF8000000E086E0FFF7F9
:1014D000DDF98146DBF8000010F4807F0AD1FFF7C8
:1014E000D5F9A0EB0900642878D8DBF8000010F4E7
:1014F000807FF4D0A068DFF8E0B1012804BFDBF8FA
:10150000000040F001000CD008B1052816D0DBF82F
:10151000000020F00100CBF80000DBF8000020F014
:101520000400CBF80000A06810B3FFF7AFF98146C4
:10153000DBF8000010F0020F0BD02EE0DBF800000B
:1015400040F00400CBF80000DBF8000040F00100A0
:10155000E7E7FFF79BF9A0EB090141F288308142F0
:101560003CD8DBF8000010F0020FF2D015E01BE0D1
:10157000FFF78CF98146DBF8000010F0020F0CD069
:10158000FFF784F9A0EB090141F28830814225D8A8
:10159000DBF8000010F0020FF2D12FB1DAF80000F2
:1015A00020F08050CAF80000A169E9B3D8F8000023
:1015B00000F00C00082855D02868022920F080701F
:1015C00028600ED0FFF762F90446286810F0007F0B
:1015D00077D0FFF75BF9001B02283ED90320BDE856
:1015E000F88FFFF753F90746286810F0007F08D0FE
:1015F000FFF74CF9C01B0228F0D8286810F0007FD4
:10160000F6D1D4E90701354A0843A16A490802EB3B
:101610000141626A41EA8211084394F82C1040EAC1
:10162000016094F8301000E04BE040EA0170306057
:10163000286840F080702860FFF728F90446286881
:1016400010F0007F3DD1FFF721F9001B0228C5D81B
:10165000286810F0007FF6D033E0286810F0007F93
:10166000B7D12EE03068012928D0E26900F480016A
:10167000914223D1226A00F03F0191421ED1626A59
:1016800047F6C0710140B1EB821F17D1A26A4FF03B
:10169000FF3300F4403103EB5202B1EB024F0DD1A6
:1016A00094F82C2000F07061B1EB026F06D194F831
:1016B000301000F0E040B0EB017F02D00120BDE827
:1016C000F88F0020BDE8F88F0838024074380240D7
:1016D0004038024000700040703802400000FFFFB8
:1016E000401EB0F1807F24BF012070474FF0E02101
:1016F0004861F020044A82F8140D00208861072018
:1017000008610020704700000FE000E0704770475C
:101710002DE9F04102680446D0691168936840F6EB
:101720000F0C10EA0C0F4FF000054FF020060BD104
:1017300010F0200F18BF11F0200F7DD0216E00296E
:1017400008BFBDE8F081ACE003F0010C01F4907734
:101750005CEA070770D010F0010F18BF11F4807F0A
:1017600005D001271762E26F42F00102E26710F034
:10177000020F18BF13F0010F06D0276802223A6249
:10178000E26F42F00402E26710F0040F18BF13F09A
:10179000010F06D0236804221A62E26F42F00202AF
:1017A000E26710F0080F1CBF01F0200252EA0C02A1
:1017B00006D0236808221A62E26F42F00802E2674C
:1017C00010F4006F18BF11F0806F07D023684FF43A
:1017D00000621A62E26F42F02002E267E26F002AC2
:1017E00008BFBDE8F08110F0200F18BF11F0200FE6
:1017F00004D0216E00291CBF20468847E16F206875
:10180000826812F0400F08BF11F0280F2AD001683B
:1018100021F4907101602068816821F001018160EC
:10182000A66725662068816811F0400F15D0816891
:1018300021F04001816000E01AE0E06E68B12449C7
:101840000165E06EFEF790FE002808BFBDE8F0815C
:10185000E06E016DBDE8F04108472046FFF757FFF5
:10186000BDE8F0812046FFF752FFE567BDE8F08153
:1018700010F4801F18BF13F4800F07D04FF48010AE
:1018800010622046FFF742FFBDE8F08110F0800FA4
:1018900018BF11F0800F08D0616E002908BFBDE8A5
:1018A000F0812046BDE8F041084710F0400F14BF1A
:1018B00011F0400FBDE8F0812046116821F0400191
:1018C00011606667656600F0F7F9BDE8F081000019
:1018D000871F0008002804BF0120704710B5044688
:1018E000406F28B9002084F87000204600F028F8E6
:1018F000242060672068016821F001010160204612
:1019000000F0A8FB012808BF10BD606A00281CBFBA
:10191000204600F09DFA2068416821F49041416022
:101920002068816821F02A0181602068016841F007
:10193000010101602046BDE8104000F0F6BA000049
:1019400070B586B0434B0021434A03244FF0020C8C
:1019500000910725019102910391049101683F488C
:10196000A1F18046B6F5A04630D0A1F18046B6F58B
:1019700088364BD0A1F18040B0F598401CBF06B02E
:1019800070BD186840F400201860186800F400204A
:101990000590106840F0010010601068694600F082
:1019A000010005904FF4C050CDE9000C0620CDE9B0
:1019B00003402B48FEF738FE002201213420FEF7B9
:1019C000C9FF3420FEF7B6FF06B070BD196841F4B8
:1019D00080111960196801F480110591116841F0B6
:1019E00002011160116801F0020105914FF440718C
:1019F000CDE9001CCDE903456946FEF715FE00223E
:101A000001213520FEF7A6FF35201EE015490B68A1
:101A100043F010030B60096801F010010591116893
:101A200041F002011160116801F002010591C0212D
:101A3000CDE9001CCDE903456946FEF7F5FD00221E
:101A400002212520FEF786FF2520FEF773FF06B052
:101A500070BD0000403802403038024000040240AF
:101A60000000024044380240836F202B52D10029ED
:101A700012BF002A0120704790F87030012B49D026
:101A8000012380F870304165A0F85820A0F85A2052
:101A900000220266FF238168B1F5805F23D04FF0FA
:101AA0007F0C39B3B1F1805F18BFA0F85C2026D05D
:101AB000C2672221816701688B6843F001038B6054
:101AC0008168B1F5805F05BF01690029124913499A
:101AD000016680F870200068016841F4907101602F
:101AE0004FF0000070470169002908BF40F2FF1164
:101AF00002D109E0016951B9A0F85C30D8E7016969
:101B0000002918BF3F2102D0A0F85C10D0E7A0F850
:101B10005CC0CDE702207047F71F00089B1F00083C
:101B200030B5044628A083B0D0E90010CDE90010FC
:101B30002068A0F18041B1F5A04114D124A0022277
:101B40004FF47A73006802A90290204600F050F822
:101B500020480168CA6912F0400FFBD01E490222DA
:101B60001C48FFF781FF21681C4DA1F18040B0F5B2
:101B7000883011D104216846FEF7A2FC18480121E3
:101B8000FEF79EFC4FF440412846FEF774FE1449D0
:101B900001221448FFF768FF2068A0F18041B1F5E9
:101BA00098411CBF03B030BD01210F4800F034FC48
:101BB0004FF440412846FEF75EFE0B4901220B48D8
:101BC000FFF752FF03B030BD4F4B0D0A000000007D
:101BD0004F4B00001C0000200000002000040240C9
:101BE000020000209C000020030000201C010020B7
:101BF0002DE9F8430446406F1F4615460E4620283F
:101C000057D1002E12BF002D0120BDE8F88394F8B3
:101C1000700001284DD0012084F870004FF00009B9
:101C2000C4F87C9021206067FEF730FEA4F8505085
:101C30008046A4F85250A068B0F5805F03BF2069C9
:101C400000280025354618BF002684F87090B4F8A7
:101C50005200B8B143464FF000024FF080012046D9
:101C6000009700F04FFBA8B9BDB1216815F8010B32
:101C70008862B4F85200401EA4F85200B4F8520032
:101C80000028E7D10022434640212046009700F07B
:101C900039FB48B10320BDE8F883216836F8020B10
:101CA000C0F308008862E4E7202060670020BDE8F8
:101CB000F8830220BDE8F8837047FEE730B587B0AF
:101CC0001948002400940194029403940494016838
:101CD00041F004010160016801F00401059101680F
:101CE00041F080010160016801F080010591016807
:101CF00041F002010160006800220C4D4FF44041A8
:101D000000F0020005902846FEF7BBFD4FF440416D
:101D1000009101212846CDE9021401916946FEF7A0
:101D200083FC07B030BD00003038024000040240A0
:101D3000FEE7FFF79BBA70477047FEF7ADBD0000A6
:101D400030B5B7B000246846902124942594269499
:101D50002794289429942A942B942C942D942E948F
:101D60002F94309431943294339434943594FEF714
:101D7000A9FAFEF771FE2748016841F08051016021
:101D8000006800F0805036902348016841F44041DB
:101D900001600068022500F4404036900120249044
:101DA000000425908001CDE92A5019202C904FF491
:101DB000D870CDE92D0524A82F95FFF769FA0028E2
:101DC00018BFFEF7D0FBFEF709FE002818BFFEF78C
:101DD000CAFB0F20CDE931054FF4A0500721CDE912
:101DE00033404FF48050359031A8FFF725F9002893
:101DF00018BFFEF7B8FB4FF480601594009068465A
:101E0000FEF732FE002818BFFEF7ADFBFFF7CCF956
:101E100037B030BD403802400070004004480168CF
:101E200041F47001016003494FF0006008607047A1
:101E300088ED00E008ED00E00148FFF769BC000014
:101E40001C0100200148FFF763BC00001C000020BB
:101E500090F8241011F0010F06D001684A68836AD7
:101E600022F400321A434A6090F8241011F0020F55
:101E700006D001684A68C36A22F480321A434A6075
:101E800090F8241011F0040F06D001684A68036B23
:101E900022F480221A434A6090F8241011F0080FAF
:101EA00006D001684A68436B22F400421A434A6034
:101EB00090F8241011F0100F06D001688A68836B27
:101EC00022F480521A438A6090F8241011F0200FF7
:101ED00006D001688A68C36B22F400521A438A60F4
:101EE00090F8241011F0400F11D001684A68036C7B
:101EF00022F480121A434A60016CB1F5801F06D1AA
:101F000001684A68436C22F4C0021A434A6090F8A0
:101F1000241011F0800F08BF704701684A68806C78
:101F200022F40022104348607047F8B500260446AA
:101F3000C667FEF7ABFC0746206800686FF07E4579
:101F400010F0080F08D000223B464FF40011204645
:101F5000009500F0D7F968B92068006810F0040F08
:101F60000AD000223B464FF480012046009500F045
:101F7000C9F908B10320F8BD20206067A0670020E0
:101F800084F87060F8BD10B5806B0021A0F85A107D
:101F9000A0F85210FFF7BBFB10BD10B5B0F85C20E5
:101FA000836F0168222B04D0886940F008008861A3
:101FB00010BD496A436D11401980416D891C41650E
:101FC000B0F85A10491EA0F85A10B0F85A1000295B
:101FD00018BF10BD01680A6822F490720A60016897
:101FE0008A6822F001028A6020218167002101664F
:101FF000FFF796FD10BD10B5B0F85C20836F016847
:10200000222B04D0886940F00800886110BD496A1D
:102010001140426D1170416D491C4165B0F85A1074
:10202000491EA0F85A10B0F85A10002918BF10BD68
:1020300001680A6822F490720A6001688A6822F0D6
:1020400001028A602021816700210166FFF768FD97
:1020500010BD000070B50446002005462269A16845
:10206000E369114362691A430A4321680B68DFF888
:1020700084C203EA0C031A430A6021684A68E368D1
:1020800022F440521A434A60226AA1690A43216835
:102090008B6823F430631A438A602168964AA1F161
:1020A0008043B3F5883323D0A1F18043B3F588434F
:1020B00029D0A1F18043B3F590432FD0A1F1804303
:1020C000B3F5984335D0A1F18043B3F5A0433BD09D
:1020D000A1F18043B3F58A3344D0A1F18043B3F535
:1020E000F0434FD0A1F18043B3F5F84358D064E0FA
:1020F000116811F0030143D0012972D002295DD08B
:10210000032970D059E0116811F00C0118BF04299F
:1021100054D0082961D00C2965D04EE0116811F027
:1021200030014BD010295CD0202956D030295AD00C
:1021300043E0116811F0C00140D0402951D08029FE
:102140004BD0C0294FD038E0116811F4407135D020
:10215000B1F5807F45D0B1F5007F3ED0B1F5407F2D
:1021600041D02AE0116811F4406109D0B1F5806FC7
:1021700037D0B1F5006F30D0B1F5406F33D01CE0EF
:1021800001211BE0116811F4405117D0B1F5805FB7
:1021900027D0B1F5005F20D0B1F5405F23D00CE02F
:1021A000116811F4404109D0B1F5804F19D0B1F553
:1021B000004F12D0B1F5404F15D01021E2694FF613
:1021C000EF76B2F5004F10D0092970D2DFE801F0A8
:1021D000535D6783708383837A000221EEE700E01A
:1021E00001E00421EAE70821E8E7092935D2DFE820
:1021F00001F0050F1934213434342B00FEF7DCFFD5
:102200004100606801EB5001B1FBF0F080B225E0C5
:10221000FEF7E2FF4100606801EB5001B1FBF0F016
:1022200080B21BE06068354901EB5001B1FBF0F072
:1022300080B213E0FEF7E0FF4100606801EB50015F
:10224000B1FBF0F080B209E060684FF4803101EB3F
:102250005001B1FBF0F080B200E00125A0F11001C7
:10226000B14240D84FF6F0710140C0F3420008433C
:102270002168C86038E0FEF79FFF0146606801EB07
:102280005001B1FBF0F080B226E0FEF7A5FF014659
:10229000606801EB5001B1FBF0F080B21CE06068B7
:1022A000174901EB5001B1FBF0F080B214E012E0ED
:1022B000FEF7A2FF0146606801EB5001B1FBF0F0B0
:1022C00080B209E060684FF4004101EB5001B1FBBE
:1022D000F0F080B200E00125A0F11001B1429CBFF6
:1022E0002168C86000D90125002020666066284664
:1022F00070BD0000F369FFEF903802400048E8012C
:102300000024F4002DE9F04704460068984616467C
:10231000089D0F46C06931EA00000CBF0120002073
:10232000B04204BF4FF0000A4FF0200947D1B5F189
:10233000FF3F3BD0FEF7AAFAA0EB0800A84222D844
:102340000DB32068016811F0040F1CBFC06910F4C0
:10235000006F2BD021684FF400600862206801688C
:1023600021F4D07101602068816821F00101816051
:10237000C4F87490C4F87890C4F87C90032084F872
:1023800070A0BDE8F0872068016821F4D071016079
:102390002068816821F001018160C4F87490C4F85C
:1023A0007890032084F870A0BDE8F0872068C069A9
:1023B00037EA00000CBF01200020B042B7D0002057
:1023C000BDE8F0870148FFF7A3B900009C0000209A
:1023D0000F490E4A10B5C1E900200C220020886088
:1023E000C860C1E904028861C861086248620846A1
:1023F000FFF770FA002818BFFEF7B5F8012205496B
:10240000BDE810400248FFF72FBB0000004C004021
:102410001C010020030000200A46014606484FF434
:102420007A7310B5FFF7E4FB03480068C16911F047
:10243000400FFBD010BD00001C010020FEE702E0B1
:1024400008C8121F08C1002AFAD17047704700203F
:1024500001E001C1121F002AFBD1704710B500280E
:1024600021D0114B0022001F196803E0814203D8DC
:102470000A4649680029F9D152B11368841A9C426E
:1024800004D1006818441060104602E0506000E07B
:10249000186039B102680B1A934203D10B681A44D1
:1024A00002604968416010BD1400002027A08AB076
:1024B00000240068099026A0D0E90010CDE905109D
:1024C00025A0D0E90010CDE90710FEF7EDF9FFF7E0
:1024D00037FCFFF7F3FB4FF4E130FEF715F8204827
:1024E000FDF72EFF4FF4E130FFF772FF00258DF866
:1024F00000500620ADF8020009A8029003276846A4
:102500008DF80470FDF766FFDFF858A009260DF17D
:1025100014080DF11C094FF4FA60FEF737F84FF478
:1025200040415046FEF7A7F98DF80050002CADF859
:10253000026007BFCDF808800124CDF80890002480
:102540008DF804706846FDF745FFE4E740000100A0
:1025500074000002000000007400F40F000000008E
:1025600040420F0000040240F0B50B30154D20F042
:1025700007010024144A0FE003688B420BD38B42FF
:1025800005D95E1A43184768C3E9006700E043684D
:10259000136002C004E0021D10680028ECD1204640
:1025A000002802D1286808B10020F0BD064A07487B
:1025B0001060074A121A22F00702C0E90024012025
:1025C0002860D7E71800002014000020A401002094
:1025D000A0030020000005800F800A001B801E0061
:1025E00014001180338036003C00398028002D8093
:1025F00027802200638066006C00698078007D80FF
:1026000077807200500055805F805A004B804E00EA
:1026100044004180C380C600CC00C980D800DD8062
:10262000D780D200F000F580FF80FA00EB80EE004A
:10263000E400E180A000A580AF80AA00BB80BE00BE
:10264000B400B180938096009C00998088008D80B2
:1026500087808200838186018C01898198019D8118
:1026600097819201B001B581BF81BA01AB81AE0102
:10267000A401A181E001E581EF81EA01FB81FE0176
:10268000F401F181D381D601DC01D981C801CD816A
:10269000C781C201400145814F814A015B815E01D2
:1026A00054015181738176017C01798168016D81CA
:1026B00067816201238126012C01298138013D8136
:1026C00037813201100115811F811A010B810E0122
:1026D00004010181038306030C03098318031D838E
:1026E00017831203300335833F833A032B832E0372
:1026F00024032183600365836F836A037B837E03E6
:1027000074037183538356035C03598348034D83D9
:1027100047834203C003C583CF83CA03DB83DE0341
:10272000D403D183F383F603FC03F983E803ED8339
:10273000E783E203A383A603AC03A983B803BD83A5
:10274000B783B203900395839F839A038B838E0391
:1027500084038183800285828F828A029B829E020B
:1027600094029182B382B602BC02B982A802AD8201
:10277000A782A202E382E602EC02E982F802FD826D
:10278000F782F202D002D582DF82DA02CB82CE0259
:10279000C402C182438246024C02498258025D82D1
:1027A00057825202700275827F827A026B826E02B9
:1027B00064026182200225822F822A023B823E022D
:1027C00034023182138216021C02198208020D8221
:1027D0000782020200000000000000000102030462
:1027E0000607080900000000010203040C28000885
:1027F000000000201C0000003E24000828280008DB
:102800001C000020840700004E2400080000000087
:102810000100000010000000000000000024F4008F
:082820000000000000000000B0
:04000005080001F9F5
:00000001FF
