:020000040800F2
:10000000300800200D020008872A0008B9280008DF
:10001000852A00083D030008BD33000800000000E9
:100020000000000000000000000000006D2B000830
:1000300095040008000000008B2A00086F2B0008C0
:1000400027020008270200082702000827020008EC
:1000500027020008270200082702000827020008DC
:1000600027020008270200082702000827020008CC
:1000700027020008270200082702000827020008BC
:10008000D10300088904000827020008270200089D
:10009000270200082702000827020008270200089C
:1000A000270200082702000827020008270200088C
:1000B000270200082702000827020008270200087C
:1000C000270200082702000827020008270200086C
:1000D000270200080D320008193200082702000824
:1000E00097040008270200082702000827020008DA
:1000F000270200082702000827020008270200083C
:10010000270200082702000827020008270200082B
:100110006D2C0008012D00082702000827020008A6
:10012000270200082702000827020008270200080B
:1001300027020008270200082702000827020008FB
:1001400027020008270200082702000827020008EB
:1001500027020008270200082702000827020008DB
:1001600027020008270200082702000827020008CB
:1001700027020008270200082702000800000000EC
:1001800027020008270200082702000827020008AB
:10019000270200082702000827020008270200089B
:1001A000270200082702000827020008270200088B
:1001B000270200082702000827020008270200087B
:1001C000270200082702000800000000270200089C
:1001D000270200082702000827020008270200085B
:1001E000270200082702000827020008270200084B
:1001F0002702000827020008DFF80CD000F08CF876
:1002000000480047F93300083008002006488047BE
:1002100006480047FEE7FEE7FEE7FEE7FEE7FEE7EB
:10022000FEE7FEE7FEE7FEE7512C0008F9010008B3
:100230002DE9F05F0546002092469B46884606461B
:10024000814640241BE0284641464746224600F0AE
:1002500053F853465A46C01A914110D311461846D6
:10026000224600F03AF82D1A67EB01084F46224665
:100270000120002100F031F817EB00094E41201E4B
:10028000A4F10104DFDC484631462A464346BDE876
:10029000F09F40EA01039B0703D009E008C9121F41
:1002A00008C0042AFAD203E011F8013B00F8013B30
:1002B000521EF9D27047D2B201E000F8012B491E5C
:1002C000FBD270470022F6E710B513460A460446F3
:1002D0001946FFF7F0FF204610BD202A04DB203A24
:1002E00000FA02F1002070479140C2F1200320FA89
:1002F00003F3194390407047202A04DB203A21FA87
:1003000002F00021704721FA02F3D040C2F120022E
:100310009140084319467047064C074D06E0E068D7
:1003200040F0010394E8070098471034AC42F6D33C
:10033000FFF766FF4C3400086C340008FEE700004D
:1003400070B4BFF34F8FBFF36F8F1C49002008605C
:10035000BFF34F8FBFF36F8F194D296841F4003100
:100360002960BFF34F8FBFF36F8F16490860BFF34B
:100370004F8F081F006843F6FF76134AC0F34E3CC8
:10038000C0F3C90406EA4C11204641EA80731360A9
:10039000401EFAD2BCF1010CF4D2BFF34F8F286893
:1003A00040F480302860BFF34F8FBFF36F8F074852
:1003B000016841F00401016070BC704750EF00E03B
:1003C00014ED00E084ED00E060EF00E09CEF00E061
:1003D000214818B4214BDFF888C00068214C224A1C
:1003E000984204D92149096801F4006105E060459B
:1003F00021D91F49096801F40061002904BF18BC14
:1004000070474FF40061984288BF1A4A03D860458C
:1004100088BF194A16D911604168C1F141010091A4
:1004200000684FF04102154910F4002F0FD018BC9E
:10043000134802F0D3BFA0428CBF5168116801F489
:100440000061DAE7A0428CBFD1609160E4E718BC9C
:100450000C4802F0C3BF000098030020586402401B
:10046000B8600240586002400060024004640240EC
:10047000006402400C64024008640240000200C0B4
:10048000000100C0000000C0014800F0B5BC000041
:100490003803002070474FF4805010B500F0C6FEBE
:1004A000BDE810404FF4005000F0C0BE70474DF85A
:1004B000044DD1E901320C681343D1E903C24CEA7F
:1004C00002021A434B6913438A69012C046843EA08
:1004D000020CCB690A6A496A08D04CEA03031A4342
:1004E00011436FF30E04214301600BE024F4F84440
:1004F0001A4321430A43416802606FF30E014CEA3C
:10050000010141605DF8044B0020704781B0D1E9E2
:1005100000236FF01F0C1A438B68C9680CEB431360
:1005200043EA4121114300910161002001B070476D
:10053000026942EA41110161002070472DE9F00192
:10054000D1F804C06FF00F050B682C015B1E05EBA2
:100550000C1C43EA0C03D1F808C04FEA0428270317
:1005600004EB0C2C43EA0C050B8A2604CC68012A08
:10057000826808EB034C8B8A097E07EB035306EB7A
:1005800001610DD0361306EB04342C4344EA0C0C05
:100590004CEA0303194302F070421143816012E0F8
:1005A000240322F47042A4F58054234322F4700201
:1005B0001A43C36845EA0C0C826003F070434CEAAE
:1005C00001011943C160BDE8F0010020704700003F
:1005D0002DE9F84F4FF0000C0A9CCDF800C0D0F880
:1005E00008C0BCF1800F17D090F834C0BCF1010FE7
:1005F00004BF0220BDE8F88F4FF0010C80F834C032
:1006000090F835504FF0000C012D0BD080F834C01D
:1006100002200090BDE8F88F4FF480714165012001
:10062000BDE8F88F022580F83550C0F854C0D0F8E6
:1006300000C0DCF8005045F48025CCF80050D0F81C
:1006400000C0CCF8103003685C608368402B0368FE
:100650001DBF99600168CA609A6004BF0268D160DA
:10066000DFF8E0E30168F84AF84B7145DFF8E0C3D2
:10067000F84CF94DF94EFA4FDFF8E883DFF8E893CC
:10068000DFF8E8A3DFF8E8B326D9914218BF994212
:1006900003D0614518BFA14202D14FF0200118E0FC
:1006A000A94218BFB14203D0B94218BF414502D197
:1006B0004FF400610DE0494518BF514507D0594539
:1006C0001EBFDFF8B0E371454FF0006101D14FF478
:1006D0000011DFF8A4E329E0DFF8A0E3714528D991
:1006E000914218BF994203D0614518BFA14202D17F
:1006F0004FF0200118E0A94218BFB14203D0B9421F
:1007000018BF414502D14FF400610DE0494518BFC3
:10071000514507D059451EBFDFF858E371454FF0EA
:10072000006101D14FF40011DFF854E3CEF800105E
:1007300054E0DFF850E3714528D9914218BF99423F
:1007400003D0614518BFA14202D14FF0200118E04B
:10075000A94218BFB14203D0B94218BF414502D1E6
:100760004FF400610DE0494518BF514507D0594588
:100770001EBFDFF800E371454FF0006101D14FF477
:100780000011DFF804E3CEF80C1027E0914218BF07
:10079000994203D0614518BFA14202D14FF0200118
:1007A00018E0A94218BFB14203D0B94218BF414571
:1007B00002D14FF400610DE0494518BF514507D003
:1007C00059451EBFDFF8ACE271454FF0006101D121
:1007D0004FF40011DFF8B0E2CEF80810DFF864E261
:1007E0000168714526D9914218BF994203D06145ED
:1007F00018BFA14202D14FF0100118E0A94218BF62
:10080000B14203D0B94218BF414502D14FF48061D3
:100810000DE0494518BF514507D059451EBFDFF8C7
:1008200054E271454FF0806101D14FF48011DFF83F
:1008300048E229E0DFF844E2714528D9914218BF27
:10084000994203D0614518BFA14202D14FF0100177
:1008500018E0A94218BFB14203D0B94218BF4145C0
:1008600002D14FF480610DE0494518BF514507D0D2
:1008700059451EBFDFF8FCE171454FF0806101D1A1
:100880004FF48011DFF8F8E1CEF8001054E0DFF803
:10089000F4E1714528D9914218BF994203D06145CE
:1008A00018BFA14202D14FF0100118E0A94218BFB1
:1008B000B14203D0B94218BF414502D14FF4806123
:1008C0000DE0494518BF514507D059451EBFDFF817
:1008D000A4E171454FF0806101D14FF48011DFF840
:1008E000A8E1CEF80C1027E0914218BF994203D03E
:1008F000614518BFA14202D14FF0100118E0A94292
:1009000018BFB14203D0B94218BF414502D14FF4DC
:1009100080610DE0494518BF514507D059451EBFBC
:10092000DFF850E171454FF0806101D14FF4801143
:10093000DFF854E1CEF80810DFF808E101687145EE
:1009400026D9914218BF994203D0614518BFA142F0
:1009500002D14FF0080118E0A94218BFB14203D0FC
:10096000B94218BF414502D14FF400710DE049452D
:1009700018BF514507D059451EBFDFF8F8E0714553
:100980004FF0007101D14FF40021DFF8ECE029E0D5
:10099000DFF8E8E0714528D9914218BF994203D0A9
:1009A000614518BFA14202D14FF0080118E0A942E9
:1009B00018BFB14203D0B94218BF414502D14FF42C
:1009C00000710DE0494518BF514507D059451EBF7C
:1009D000DFF8A0E071454FF0007101D14FF4002124
:1009E000DFF89CE0CEF8001078E0DFF898E0714581
:1009F0004CD9914218BF994203D0614518BFA1421A
:100A000002D14FF0080118E0A94218BFB14203D04B
:100A1000B94218BF414502D14FF400710DE049457C
:100A200018BF514507D059451EBFDFF848E0714552
:100A30004FF0007101D14FF40021DFF84CE0CEF807
:100A40000C104BE0586402401060024010640240F9
:100A500070600240706402402860024028640240D6
:100A60008860024088640240406002404064024066
:100A7000A0600240A06402400C640240B8600240E2
:100A8000086402405860024000600240914218BF72
:100A9000994203D0614518BFA14202D14FF008012D
:100AA00018E0A94218BFB14203D0B94218BF41456E
:100AB00002D14FF400710DE0494518BF514507D0F0
:100AC00059451EBFDFF8F0E271454FF0007101D1CA
:100AD0004FF40021DFF8E4E2CEF80810DFF8E0E29E
:100AE0000168714526D9914218BF994203D06145EA
:100AF00018BFA14202D14FF0040118E0A94218BF6B
:100B0000B14203D0B94218BF414502D14FF48071C0
:100B10000DE0494518BF514507D059451EBFDFF8C4
:100B200098E271454FF0807101D14FF48021DFF8D8
:100B300094E229E0DFF890E2714528D9914218BF8C
:100B4000994203D0614518BFA14202D14FF0040180
:100B500018E0A94218BFB14203D0B94218BF4145BD
:100B600002D14FF480710DE0494518BF514507D0BF
:100B700059451EBFDFF840E271454FF0807101D149
:100B80004FF48021DFF844E2CEF8001054E0DFF8A3
:100B900040E2714528D9914218BF994203D061457E
:100BA00018BFA14202D14FF0040118E0A94218BFBA
:100BB000B14203D0B94218BF414502D14FF4807110
:100BC0000DE0494518BF514507D059451EBFDFF814
:100BD000E8E171454FF0807101D14FF48021DFF8D9
:100BE000DCE1CEF80C1027E0914218BF994203D007
:100BF000614518BFA14202D14FF0040118E0A9429B
:100C000018BFB14203D0B94218BF414502D14FF4D9
:100C100080710DE0494518BF514507D059451EBFA9
:100C2000DFF894E171454FF0807101D14FF48021DC
:100C3000DFF888E1CEF80810DFF884E1016871453B
:100C400024D9914218BF994203D0614518BFA142EF
:100C500002D14FF0010117E0A94218BFB14203D001
:100C6000B94218BF414502D14FF040010CE049455F
:100C700018BF514506D059451EBF4F4A91424FF407
:100C8000800101D14FF480314E4A27E0DFF838E18E
:100C9000714525D9914218BF994203D0614518BFCB
:100CA000A14202D14FF0010117E0A94218BFB142A1
:100CB00003D0B94218BF414502D14FF040010CE0CA
:100CC000494518BF514506D059451EBF3A4A914281
:100CD0004FF4800101D14FF480313C4A11604EE065
:100CE000DFF8ECE0714525D9914218BF994203D055
:100CF000614518BFA14202D14FF0010117E0A9429E
:100D000018BFB14203D0B94218BF414502D14FF0DC
:100D100040010CE0494518BF514506D059451EBF5A
:100D2000254A91424FF4800101D14FF48031234A8A
:100D3000D16024E0914218BF994203D0614518BFA9
:100D4000A14202D14FF0010117E0A94218BFB14200
:100D500003D0B94218BF414502D14FF040010CE029
:100D6000494518BF514506D059451EBF124A914208
:100D70004FF4800101D14FF48031104A9160016835
:100D80000A6842F016020A6001684A6942F080026D
:100D90004A61016C002904BF816C002904D00168FC
:100DA0000A6842F008020A600068016841F0010127
:100DB00001600098BDE8F88FA06402400060024026
:100DC000586402400C640240B8600240086402406B
:100DD0005860024090F83510022903D08021416507
:100DE00001207047052180F835100068016821F066
:100DF00001010160002070472DE9F8430446754861
:100E00004FF00008CDF800804FF41651A56D006832
:100E1000B0FBF1F72E68082194F85C0001FA00F0AD
:100E2000304211D02068026812F0040F0CD0026822
:100E300022F00402026094F85C0001FA00F0A8605D
:100E4000606D40F00100606594F85C004FF00109AE
:100E500009FA00F0304209D02168496911F0800F89
:100E600004D0A860606D40F00200606594F85C10EA
:100E700004208840304209D02168096811F0020F2F
:100E800004D0A860606D40F00400606594F85C10C8
:100E900010208840304220D02168096811F0080FE6
:100EA0001BD0A8602068016811F4802F09D0006869
:100EB00010F4002F02D0A16C79B10CE0216C51B973
:100EC0000BE0016811F4807F03D1016821F0080173
:100ED0000160216C09B12046884794F85C102020FD
:100EE000884030424AD02168096811F0100F45D07F
:100EF000A86094F8350005282068016809D011F42D
:100F0000802F2BD0006810F4002F24D0E16B21B388
:100F100032E021F0160101602068416921F0800172
:100F20004161206C002804BFA06C002804D0206818
:100F3000016821F00801016094F85C004FF03F0166
:100F400001FA00F0A86084F8348084F83590216DAF
:100F5000D1BBBDE8F883616C71B90FE0016811F491
:100F6000807F07D1016821F01001016084F834808E
:100F700084F83590E16B09B120468847606D002800
:100F800008BFBDE8F883606D10F0010F17D04FF077
:100F9000050084F835002068016821F00101016036
:100FA000009800F101000090B84204D82068006861
:100FB00010F0010FF4D184F8348084F83590E16C9E
:100FC000002908BFBDE8F883204601B0BDE8F04322
:100FD000084700001000002070B5044600F064FAD5
:100FE000002C064604BF012070BD0025022084F8B5
:100FF000345084F835002068016821F00101016057
:101000002068006810F0010F0FD000F04DFA801B2F
:10101000052805D920206065032084F8350070BDBF
:101020002068006810F0010FEFD1216808683C4A81
:101030001040D4E901231A43D4E9033C43EA0C03EA
:101040001A4363691A43A3691A43E3691A43236A7B
:101050001A431043626A042A03D1D4E90B231A43CA
:1010600010430860266870694FF0010C20F00701FA
:10107000606A042840EA010237D1A16AE06A0A43A3
:1010800018B3A36953B1B3F5005F14D000291CBF96
:101090000129022921D003291CD026E019B10129F8
:1010A00005D0022921D110F0807F1ED015E0B0F1CB
:1010B000C07F1AD111E081B1012907D002290CD0DB
:1010C000032908BFB0F1C07F07D00EE010F0807F89
:1010D00003D10AE010F0807F07D04FF04000606538
:1010E00084F835C04FF0010070BD726120680D4A70
:1010F000C1B2A1F110016FF30900A2FB01210A4A5C
:101100004FEA11110329525CE26588BF001D3F219F
:10111000A06591408160656584F835C0002070BD90
:101120003F8010E0ABAAAAAA2C34000830B490F893
:1011300034C00024BCF1010F02BF022030BC704754
:101140004FF0010C80F834C090F835504FF0000C8F
:10115000012D1CBF80F834C0022402D0204630BCD0
:101160007047022580F83550C0F854C0D0F800C050
:10117000DCF8005025F48025CCF80050D0F800C0F1
:10118000CCF804308368402B036803BF9A60026880
:10119000D16099601CBF0168CA600068016841F0B5
:1011A00001010160DAE7000070B5044600F07CF947
:1011B000B4F1FF3F054602D004480078044400F033
:1011C00073F9401BA042FAD370BD00000400002058
:1011D00070B504463220FFF7E7FF134DB4F5805F8A
:1011E00012D0B4F5005F18BF70BD4FF4005128460F
:1011F00000F04AF9002818BF70BD4FF4004128469E
:10120000BDE8704000F045B94FF48051284600F029
:101210003BF9002818BF70BD4FF480412846BDE857
:10122000704000F036B900000004024004490A682A
:10123000024208BF704710B50860FFF7C9FF10BD34
:10124000143C01402DE9F84F8A4E00230127032466
:101250000F250A6807FA03F802EA080CC44540F0B3
:1012600002814A68012A18BF022A03D0112A18BF36
:10127000122A1AD1D0F808904FEA430204FA02FA6F
:1012800029EA0A09D1F80CA00AFA02F242EA090294
:101290008260426822EA080291F80480C8F30018CC
:1012A00008FA03F848EA02024260D0F80C904FEACC
:1012B0004302D1F808A004FA02F829EA08090AFA58
:1012C00002FA4AEA0909C0F80C90D1F80490B9F181
:1012D000020F18BFB9F1120F15D14FEAD30900EB75
:1012E0008909D9F820B04FEA437A4FEADA6A05FA59
:1012F0000AFE2BEA0E0BD1F810E00EFA0AFA4AEABF
:101300000B0AC9F820A0D0F8009029EA080891F843
:10131000049009F0030909FA02F242EA08020260A5
:101320004A6812F0805F7BD0534AD2F8008048F4BC
:101330008048C2F80080126802F48042009223F0D4
:10134000030202F1804808F59838D8F808284FEAD7
:1013500083794FEA197905FA09FA22EA0A0AA0F113
:101360008042B2F500323ED0A0F18042B2F50132A7
:1013700008BF012237D0A0F18042B2F5023208BF87
:10138000022230D0A0F18042B2F5033208BF03221E
:1013900029D0A0F18042B2F5043208BF042222D045
:1013A000A0F18042B2F5053208BF05221BD0A0F1A2
:1013B0008042B2F5063208BF062214D0A0F1804266
:1013C000B2F5073208BF07220DD0A0F18042B2F576
:1013D000083208BF082206D0A0F18042B2F50932D7
:1013E0000CBF09220A2202FA09F242EA0A02C8F8EC
:1013F0000828DFF88880D8F80020D1F8049022EA85
:101400000C0219F4803F18BF42EA0C02C8F8002011
:101410003268D1F8048022EA0C0218F4003F00E0A0
:1014200021E018BF42EA0C023260DFF85480D8F89D
:101430000020D1F8049022EA0C0219F4801F18BF92
:1014400042EA0C02C8F80020DFF83880D8F8002003
:10145000D1F8049022EA0C0219F4001F18BF42EAE6
:101460000C02C8F800205B1C102BFFF4F2AEBDE8A4
:10147000F88F0000043C014044380240003C014029
:10148000083C01400C3C01400069084018BF0120A5
:10149000704742690A4218BF090481617047002AF7
:1014A00008BF0904816170470148806870470000E7
:1014B000040000200248816802781144816070476E
:1014C00004000020032010B500F084F8002000F094
:1014D00005F800F023F8002010BD000070B50D4D98
:1014E00004464FF47A712878B1FBF0F00A49096894
:1014F000B1FBF0F000F0DAFF48B9102C07D200225F
:101500002146501E00F034F800206C6070BD0120B0
:1015100070BD000004000020100000200A4881B0C7
:10152000016841F080510160006800F08050009037
:101530000648016841F480410160006800F4804081
:10154000009001B07047000040380240443802402B
:101550000028B8BF704700F01F01012202FA01F114
:101560004009800000F1E020C0F800117047000041
:10157000174B4DF8044D1B68C3F30223C3F1070C4E
:10158000BCF1040F88BF4FF0040C1C1D072C34BFA6
:101590000023DB1E012404FA0CFCACF1010C0CEA64
:1015A0000101994004FA03F35B1E1A40114300281D
:1015B0004FEA0111B8BF00F00F0000F1E020ACBF0E
:1015C00080F8001480F8141D5DF8044B704700008B
:1015D0000CED00E0074A00F0070011684FF6FF032A
:1015E000194041EA002040F0FD7040F0806010603A
:1015F000704700000CED00E01C4838B5016841F070
:101600008051016000681A4C00F080500090206802
:1016100040F480302060FFF747FF0546606810F413
:10162000803F09D1FFF740FF401BB0F57A7F14D807
:10163000606810F4803FF5D0206840F400302060EE
:10164000FFF732FF0546606810F4003F0BD1FFF74B
:101650002BFF401BB0F57A7F01D9032038BD6068AD
:1016600010F4003FF3D0002038BD000040380240A5
:10167000007000400248016841F4807101607047C9
:10168000007000402DE9F84F0026044600783546EA
:10169000DFF880A410F0010F0FD0DAF8000020F47A
:1016A0000000CAF80000DAF80000616B0843CAF8CD
:1016B0000000606B002808BF01262068DFF858840E
:1016C00010F4002F10D0D8F80000E16B20F4401087
:1016D0000843C8F80000E06BB0F5801F08BF012682
:1016E00002D0002808BF0125206810F4801F10D008
:1016F000D8F80000216C20F440000843C8F800002E
:10170000206CB0F5800F08BF012602D0002808BF6A
:101710000125206810F0807F18BF012610F0200FEF
:1017200071D0FE48016841F0805101600068DFF827
:10173000F09300F080500090D9F8000040F48070E1
:10174000C9F80000FFF7B0FE0746D9F8000010F412
:10175000807F0AD1FFF7A8FEC01B642800F26B82CD
:10176000D9F8000010F4807FF4D0DFF8B893D9F8EE
:10177000000010F4407031D0218E01F4407181429C
:101780002CD0D9F80000D9F8001020F4407041F4B2
:101790008031C9F80010D9F8001021F48031C9F85F
:1017A0000010C9F80000D9F8000010F0010F15D0A2
:1017B000FFF77AFE0746D9F8000010F0020F08BFC5
:1017C00041F2883B0AD1FFF76FFEC01B584500F27B
:1017D0003282D9F8000010F0020FF4D0206B4FF4E1
:1017E000407181431CBFDAF8000020F4F81000F0CB
:1017F000ED80CAF80000D9F80000218EC1F30B017A
:101800000843C9F80000207810F0100F0BD0D8F86A
:10181000000020F08070C8F80000D8F80000A16B2C
:101820000843C8F80000208810F4804FBE4805D057
:101830000168626E21F4403111430160218811F486
:10184000004F05D00168A26E21F4402111430160D0
:10185000216811F4803F05D00168E26E21F4401147
:1018600011430160216811F4003F05D00168226F27
:1018700021F4400111430160217811F0400F05D09F
:101880000168626C21F0030111430160217811F0BD
:10189000800F05D00168A26C21F00C01114301609A
:1018A000218811F4807F05D00168E26C21F03001BD
:1018B00011430160218811F4007F05D00168226D79
:1018C00021F0C00111430160218811F4806F05D01F
:1018D0000168626D21F4407111430160218811F4A7
:1018E000006F05D00168A26D21F4406111430160D1
:1018F000218811F4805F05D00168E26D21F4405128
:1019000011430160218811F4005F05D00168226E47
:1019100021F4404111430160216811F4800F05D08A
:10192000016821F08062A16F11430160216811F408
:10193000001F0AD00168E26F21F0006111430160CD
:10194000E16FB1F1006F08BF0125216811F0080FA8
:1019500018BF012511F4802F05D00168626F21F0B6
:10196000407111430160216811F4000F06D0016835
:10197000D4F8802021F0805111430160216811F0DA
:10198000806F06D00168D4F8842021F00051114303
:101990000160206810F0006F08D0D8F80000D4F87B
:1019A000881020F000700843C8F80000206810F08C
:1019B000805F08D0D8F80000D4F88C1020F0806048
:1019C0000843C8F80000594F76B909E0DAF800106A
:1019D00020F4407020F0704021F4F811084308E72B
:1019E0002068B0F1007F7CD1386820F080603860DA
:1019F000FFF75AFD0646386810F0006F08D0FFF771
:101A000053FD801B64286DD8386810F0006FF6D144
:101A10002078474910F0010F11D0606B78B9086841
:101A20000A68C0F301406368C2F303629B0143EAA2
:101A3000004040EA0260227A40EA027008602068B2
:101A400010F4002F03D0E26BB2F5801F06D010F423
:101A5000801F1CD0206CB0F5800F18D108680A6870
:101A6000C0F301406368C2F302729B0143EA004085
:101A7000237B40EA036040EA02700860D8F8000067
:101A8000626A20F01F00521E1043C8F80000206850
:101A900010F0807F10D008680A68C0F303606368A4
:101AA000B4F810C0C2F302729B0143EA0C4343EA4C
:101AB000006040EA02700860206810F0007F0BD0E0
:101AC0006068228A800140EA0240227B40EA02628A
:101AD000207A42EA00700860386840F08060386020
:101AE00001E010E08AE0FFF7DFFC0646386810F0FE
:101AF000006F08D1FFF7D8FC801B64287ED83868B7
:101B000010F0006FF6D0EDB3386820F080503860E8
:101B100010E00000083802408C3802404038024093
:101B20000070004070380240903802400038024097
:101B300084380240FFF7B8FC0546386810F0005FB3
:101B400008D0FFF7B1FC401B642874D8386810F047
:101B5000005FF6D120683D4A10F4002F01D0E16B00
:101B600021B110F4801F1FD0206CE8B910681168F3
:101B7000C0F301406369C1F302719B0143EA004075
:101B8000237E00E05EE040EA036040EA01701060FE
:101B9000D8F800006FF0FF03A16A20F4F85003EBBF
:101BA00001210843C8F80000206810F4001F14D079
:101BB000E06FB0F1006F10D11068C0F303611068DE
:101BC0006369B4F820C0C0F302709B0143EA0C4380
:101BD00043EA016141EA00701060207810F0080FBC
:101BE00019D01068C0F3036110686369C0F3014045
:101BF0009B0143EA004040EA016000E01BE0217FD6
:101C000040EA01701060D8F80000E16A20F440302A
:101C10000843C8F80000386840F080503860FFF78B
:101C200043FC0446386810F0005F0BD1FFF73CFC22
:101C3000001B642802D90320BDE8F88F386810F033
:101C4000005FF3D00020BDE8F88F00008838024024
:101C500070470000002804BF012070472DE9F047BD
:101C6000DFF8488104460D46D8F8000000F00F0068
:101C7000A8420CD2D8F8000020F00F002843C8F882
:101C80000000D8F8000000F00F00A84264D12068DE
:101C9000474F10F0020F14D010F0040F03D0386833
:101CA00040F4E0503860207810F0080F03D0386816
:101CB00040F460403860386820F0F001A0680843C4
:101CC0003860207810F0010F33D06068394901285E
:101CD0001FD00968022821D011F0020F3CD03968CA
:101CE00021F0030108433860FFF7DEFB0646386841
:101CF000616800F00C00B0EB810F18BF41F2883929
:101D000017D0FFF7D1FB801B48450BD90320BDE856
:101D1000F087096811F4003FE1D11DE011F0007F68
:101D2000DDD119E03868616800F00C00B0EB810F7C
:101D3000E7D1D8F8000000F00F00A8420FD9D8F87A
:101D4000000020F00F002843C8F80000D8F8000079
:101D500000F00F00A84202D00120BDE8F0872078F3
:101D600010F0040F05D03868E16820F4E050084313
:101D70003860207810F0080F06D03868216920F408
:101D8000604040EAC100386000F044F839680A4A0F
:101D9000C1F30311515CC840084908600848006855
:101DA000FFF79CFB0020BDE8F0870000003C0240EC
:101DB0000838024000380240343400081000002087
:101DC000080000200248016841F4002101607047CA
:101DD000003802400448054900680968044AC1F314
:101DE0008221515CC8407047100000200838024032
:101DF000443400080448054900680968044AC1F3EE
:101E00004231515CC8407047100000200838024041
:101E1000443400081848006810F00C01174808BF47
:101E20007047174B042904BF18467047082918BF8C
:101E3000704710B5134C216801F03F02216811F47E
:101E4000800F08D02068C0F38810A0FB0301002396
:101E5000FEF7EEF907E021680023C1F38811A1FB2A
:101E60000001FEF7E5F92168C1F30141491C490071
:101E7000B0FBF1F010BD0000083802400024F4006F
:101E800040787D01043802400648006810F0800F59
:101E900008BF704710B5FFF7DBFE034980200870CC
:101EA00010BD00000C3802400E3802402DE9F84FFA
:101EB00004004FF0000700F00F82DFF8288420783C
:101EC000A8F1040610F0010FA6F104055CD0D8F8C3
:101ED000000000F00C00042809D0D8F8000000F041
:101EE0000C0008280CD1306810F4800F08D0286846
:101EF00010F4003F48D06068002800F0ED8143E016
:101F00006068B0F5803F04BF286840F480300AD094
:101F100010B1B0F5A02F11D0286820F480302860CF
:101F2000286820F4802028606068D8B1FFF7BCFAE8
:101F30008146286810F4003F08D025E0286840F466
:101F400080202860286840F48030ECE7FFF7ACFA86
:101F5000A0EB0900642800F24F81286810F4003FCC
:101F6000F4D011E0FFF7A0FA8146286810F4003F92
:101F70000AD0FFF799FAA0EB0900642800F23C812F
:101F8000286810F4003FF4D1207810F0020F4CD0F4
:101F9000D8F8000010F00C0F18D0D8F8000000F0AE
:101FA0000C00082804BF306810F4800F0ED0E068E1
:101FB0000028286825D040F001002860FFF774FA57
:101FC0008146286810F0020F09D012E0286810F04E
:101FD000020F1CBFE06801280BD000F07DB9FFF7AD
:101FE00063FAA0EB090002287ED8286810F0020FDF
:101FF000F5D02868216920F0F80040EAC100286087
:1020000013E020F001002860FFF74EFA81462868AF
:1020100010F0020F09D0FFF747FAA0EB09000228E1
:1020200062D8286810F0020FF5D1207810F0080F60
:1020300035D0DFF8B4A260690028DAF8000017D0C4
:1020400040F00100CAF80000FFF72EFA8146DAF8E6
:10205000000010F0020F22D1FFF726FAA0EB0900D2
:10206000022841D8DAF8000010F0020FF4D016E090
:1020700020F00100CAF80000FFF716FA8146DAF8EE
:10208000000010F0020F0AD0FFF70EFAA0EB0900D3
:10209000022829D8DAF8000010F0020FF4D12078D5
:1020A00010F0040F71D0DFF844A2DAF8000010F04D
:1020B000805F0BD1DAF8000040F08050CAF80000D1
:1020C000DAF80000012700F080500090DFF820B21D
:1020D000DBF8000010F4807F1AD1DBF8000040F438
:1020E0008070CBF8000000E086E0FFF7DDF9814664
:1020F000DBF8000010F4807F0AD1FFF7D5F9A0EBE0
:102100000900642878D8DBF8000010F4807FF4D050
:10211000A068DFF8E0B1012804BFDBF8000040F060
:1021200001000CD008B1052816D0DBF8000020F023
:102130000100CBF80000DBF8000020F00400CBF831
:102140000000A06810B3FFF7AFF98146DBF800008C
:1021500010F0020F0BD02EE0DBF8000040F004007E
:10216000CBF80000DBF8000040F00100E7E7FFF7E4
:102170009BF9A0EB090141F2883081423CD8DBF8A1
:10218000000010F0020FF2D015E01BE0FFF78CF911
:102190008146DBF8000010F0020F0CD0FFF784F945
:1021A000A0EB090141F28830814225D8DBF800001C
:1021B00010F0020FF2D12FB1DAF8000020F08050B9
:1021C000CAF80000A169E9B3D8F8000000F00C00DB
:1021D000082855D02868022920F0807028600ED089
:1021E000FFF762F90446286810F0007F77D0FFF708
:1021F0005BF9001B02283ED90320BDE8F88FFFF7EA
:1022000053F90746286810F0007F08D0FFF74CF913
:10221000C01B0228F0D8286810F0007FF6D1D4E95E
:102220000701354A0843A16A490802EB0141626A85
:1022300041EA8211084394F82C1040EA016094F8B6
:10224000301000E04BE040EA01703060286840F058
:1022500080702860FFF728F90446286810F0007F96
:102260003DD1FFF721F9001B0228C5D8286810F0DE
:10227000007FF6D033E0286810F0007FB7D12EE061
:102280003068012928D0E26900F48001914223D10D
:10229000226A00F03F0191421ED1626A47F6C07186
:1022A0000140B1EB821F17D1A26A4FF0FF3300F457
:1022B000403103EB5202B1EB024F0DD194F82C20C8
:1022C00000F07061B1EB026F06D194F8301000F0AD
:1022D000E040B0EB017F02D00120BDE8F88F002084
:1022E000BDE8F88F08380240743802404038024098
:1022F00000700040703802400000FFFF002804BF5B
:102300000120704770B5044690F82C000D4628B99E
:10231000002084F82D00204600F012F8022084F8F6
:102320002C002068211DFEF7C2F8D4E900022946DE
:10233000FEF704F9012084F82C00002070BD000095
:10234000F0B587B03C4800240094019402940394B3
:102350000494016800291CBF07B0F0BD0121016091
:102360003648016841F001010160006800F0010099
:1023700005903348016841F020010160016801F0D7
:1023800020010591016841F004010160016801F03C
:1023900004010591016841F040010160016801F00C
:1023A00040010591016841F010010160016801F0F0
:1023B00010010591016841F00801016000680225E3
:1023C0000C27694600F0080005904FF63F00CDE964
:1023D000000503261B48CDE90367FEF733FF0D20F8
:1023E0006946CDE900051848CDE902460497FEF795
:1023F00029FF48F237106946CDE900051348CDE9B9
:1024000002460497FEF71EFF4FF683706946CDE93A
:1024100000050F48CDE902460497FEF713FF4CF282
:1024200003706946CDE900050A48CDE902460497E4
:10243000FEF708FF07B0F0BD00000020383802406A
:1024400030380240001402400008024000180240E8
:1024500000100240000C024070B5044690F82C00B9
:102460000D46022808BF70BD022084F82C002068A9
:10247000FEF74CF8286802280CBF0520012084F8DC
:102480002C00002070BD10B5044690F82C000228E6
:1024900008BF10BD022084F82C002068FEF748F821
:1024A000012084F82C00002010BD0000401EB0F177
:1024B000807F24BF012070474FF0E0214861F02069
:1024C000044A82F8140D002088610720086100206A
:1024D000704700000FE000E07047416F202914D1E1
:1024E00090F87010012910D0012180F8701024217B
:1024F000416701684A6842F400024A60202141674E
:10250000002180F87010084670470220704770471D
:102510002DE9F04102680446D0691168936840F6DD
:102520000F0C10EA0C0F4FF000054FF020060BD1F6
:1025300010F0200F18BF11F0200F7DD0216E002960
:1025400008BFBDE8F081ACE003F0010C01F4907726
:102550005CEA070770D010F0010F18BF11F4807FFC
:1025600005D001271762E26F42F00102E26710F026
:10257000020F18BF13F0010F06D0276802223A623B
:10258000E26F42F00402E26710F0040F18BF13F08C
:10259000010F06D0236804221A62E26F42F00202A1
:1025A000E26710F0080F1CBF01F0200252EA0C0293
:1025B00006D0236808221A62E26F42F00802E2673E
:1025C00010F4006F18BF11F0806F07D023684FF42C
:1025D00000621A62E26F42F02002E267E26F002AB4
:1025E00008BFBDE8F08110F0200F18BF11F0200FD8
:1025F00004D0216E00291CBF20468847E16F206867
:10260000826812F0400F08BF11F0280F2AD001682D
:1026100021F4907101602068816821F001018160DE
:10262000A66725662068816811F0400F15D0816883
:1026300021F04001816000E01AE0E06E68B12449B9
:102640000165E06EFEF7C6FB002808BFBDE8F0811B
:10265000E06E016DBDE8F04108472046FFF757FFE7
:10266000BDE8F0812046FFF752FFE567BDE8F08145
:1026700010F4801F18BF13F4800F07D04FF48010A0
:1026800010622046FFF728FFBDE8F08110F0800FB0
:1026900018BF11F0800F08D0616E002908BFBDE897
:1026A000F0812046BDE8F041084710F0400F14BF0C
:1026B00011F0400FBDE8F0812046116821F0400183
:1026C00011606667656600F0F6F8BDE8F08100000D
:1026D000892E0008002804BF0120704710B5044669
:1026E000406F28B9002084F87000204600F028F8D8
:1026F000242060672068016821F001010160204604
:1027000000F0CCFB012808BF10BD606A00281CBF88
:10271000204600F01EFB2068416821F49041416092
:102720002068816821F02A0181602068016841F0F9
:10273000010101602046BDE8104000F077BB0000B9
:1027400070B586B0534C0021534A02234FF0030C5E
:1027500000910725019102910391049101684F486E
:10276000A1F18046B6F5A04633D0A1F18046B6F57A
:1027700088364ED04A48A1F18046B6F5984668D0D2
:10278000A1F18046B6F588461CBF06B070BD216831
:1027900041F400312160216801F400310591116894
:1027A00041F001011160116801F0010105910C2156
:1027B000CDE90013CDE903C56946FEF743FD0222CA
:1027C00001212620FEF7D4FE2620FEF7C1FE06B02A
:1027D00070BD216841F480112160216801F48011ED
:1027E0000591116841F002011160116801F00201C8
:1027F00005914FF44071CDE90013CDE903C5694659
:10280000FEF720FD012235201146FEF7B1FE3520EE
:10281000DBE724490C6844F010040C60096801F0FF
:1028200010010591116841F002011160116801F079
:1028300002010591C021CDE90013CDE903C5694628
:10284000FEF700FD002202212520FEF791FE252043
:10285000BBE7216841F400212160216801F40021D7
:102860000591116841F001011160116801F0010149
:1028700005914FF4C051CDE900130621CDE903C104
:102880006946FEF7DFFC002201213420FEF770FECE
:1028900034209AE7403802403038024000040240B9
:1028A00000000240443802400068426902F07F4262
:1028B0001143416170477047FEE7000030B587B0B3
:1028C000194800240094019402940394049401682C
:1028D00041F004010160016801F004010591016803
:1028E00041F080010160016801F0800105910168FB
:1028F00041F002010160006800220C4D4FF440419C
:1029000000F0020005902846FEF7C9FD4FF4404153
:10291000009101212846CDE9021401916946FEF794
:1029200091FC07B030BD0000303802400004024086
:102930002DE9F04387B0494D0026074604960596D9
:10294000286840F001002860286801A9444C00F084
:102950000100009060200190012002900390204629
:10296000FEF770FC9020CDE9010601A920460496EF
:10297000FEF768FC012220466021FEF790FD3A4CEC
:10298000384820600C20C4E90176E660C4E90460A0
:102990000820A661E661C4E9086000036063204680
:1029A000FFF798FE002818BFFDF780FD286840F467
:1029B0000010286028684FF000672D4D4FF48068A4
:1029C00000F40010009029484FF40039C5E90007D1
:1029D0004020C5E90206C5E90486AE612846C5E97E
:1029E00007696E62FEF7F8FA002818BFFDF75EFD72
:1029F000A566AC63204D1F4828608015C5E90176A7
:102A0000C5E903686E61C5E90660C5E90896284610
:102A1000FEF7E2FA002818BFFDF748FDA566412041
:102A2000AC6300902068154B154A00F12401124850
:102A3000FDF7CEFD002210201146FEF799FD102073
:102A4000FEF786FD2068816841F0C00181604FF487
:102A5000FA70FEF7A9FB07B0BDE8F08330380240FA
:102A60000000024000440040B8020020A060024084
:102A7000380300208860024098030020000100C055
:102A8000000000C0FEE7FFF7FFB97047364800229C
:102A90004DF804ED33498DB01023C0E90012012137
:102AA00081600821C0E90313402343614FF4C073E0
:102AB000C0E906320A0202624A0242628A02826265
:102AC0000220CDE9000106210291CDE90310059015
:102AD000694606902448FFF711FC002818BFFDF74F
:102AE000E5FC01200DF1200C0246002310218CE8AA
:102AF0000F0002031C4808A9FFF7AEFC4FF4FA7060
:102B0000FEF752FB0DF1200C0220012200231021C0
:102B10008CE80F00C202144808A9FFF79DFC0DF1D4
:102B2000200C03200822002310218CE80F000A0249
:102B30000D4808A9FFF790FC0DF1200C42F230037C
:102B40000420012210218CE80F008202064808A907
:102B5000FFF782FC044840F23731FFF794FC0DB0D8
:102B60005DF804FB400100A0F80300207047FEF769
:102B7000A1BC000030B5B7B0002468469021249471
:102B8000259426942794289429942A942B942C9461
:102B90002D942E942F943094319432943394349411
:102BA0003594FDF78FFBFEF765FD2748016841F07E
:102BB00080510160006800F0805036902348016821
:102BC00041F4404101600068022500F44040369025
:102BD00001202490000425908001CDE92A5019207D
:102BE0002C904FF4D870CDE92D0524A82F95FFF730
:102BF0005DF9002818BFFDF759FCFEF7FDFC002821
:102C000018BFFDF753FC0F20CDE931054FF4A0505C
:102C10000721CDE933404FF48050359031A8FFF7BC
:102C200019F8002818BFFDF741FC4FF48060159497
:102C300000906846FEF726FD002818BFFDF736FC19
:102C4000FFF7C0F837B030BD403802400070004098
:102C50000448016841F47001016003494FF00060CD
:102C60000860704788ED00E008ED00E038B500200E
:102C700000901A480068C16911F4006F08BF38BDA0
:102C80004FF400610162164C2068016821F00101D7
:102C90000160206841684FF40012124BC1F16401D9
:102CA000984288BF104B04D8104B984288BF104BF5
:102CB0000BD91A60642242600E4800F06FFB206856
:102CC000016841F00101016038BDDFF82CC00B4BF9
:102CD00060458CBFDA609A60ECE700007801002064
:102CE00058020020586402400C640240B860024060
:102CF0000864024014010020586002400060024055
:102D00000148FFF705BC000014000020002912BF95
:102D1000002A00207047A0F85020A0F85220B0F8F8
:102D200052209AB103680A789A620268D36913F054
:102D3000800FFBD0B0F85220A2F10102A0F852207F
:102D4000B0F8522001F10101002AEBD14FF001004F
:102D5000704790F8241011F0010F06D001684A68FE
:102D6000836A22F400321A434A6090F8241011F06A
:102D7000020F06D001684A68C36A22F480321A43FF
:102D80004A6090F8241011F0040F06D001684A68D8
:102D9000036B22F480221A434A6090F8241011F049
:102DA000080F06D001684A68436B22F400421A43B8
:102DB0004A6090F8241011F0100F06D001688A685C
:102DC000836B22F480521A438A6090F8241011F029
:102DD000200F06D001688A68C36B22F400521A43A0
:102DE0008A6090F8241011F0400F11D001684A68F1
:102DF000036C22F480121A434A60016CB1F5801F03
:102E000006D101684A68436C22F4C0021A434A6042
:102E100090F8241011F0800F08BF704701684A68CD
:102E2000806C22F40022104348607047F8B50026F9
:102E30000446C667FEF738FB0746206800686FF057
:102E40007E4510F0080F08D000223B464FF40011D9
:102E50002046009500F07AF968B92068006810F003
:102E6000040F0AD000223B464FF480012046009513
:102E700000F06CF908B10320F8BD20206067A0675E
:102E8000002084F87060F8BD10B5806B0021A0F8B8
:102E90005A10A0F85210FFF73AFB10BD70B5044667
:102EA000002005462269A168E369114362691A435B
:102EB0000A4321680B68DFF884C203EA0C031A4353
:102EC0000A6021684A68E36822F440521A434A6063
:102ED000226AA1690A4321688B6823F430631A438C
:102EE0008A602168964AA1F18043B3F5883323D0E4
:102EF000A1F18043B3F5884329D0A1F18043B3F514
:102F000090432FD0A1F18043B3F5984335D0A1F180
:102F10008043B3F5A0433BD0A1F18043B3F58A339E
:102F200044D0A1F18043B3F5F0434FD0A1F18043E9
:102F3000B3F5F84358D064E0116811F0030143D0B1
:102F4000012972D002295DD0032970D059E011689F
:102F500011F00C0118BF042954D0082961D00C29A4
:102F600065D04EE0116811F030014BD010295CD0D3
:102F7000202956D030295AD043E0116811F0C00101
:102F800040D0402951D080294BD0C0294FD038E0C3
:102F9000116811F4407135D0B1F5807F45D0B1F59D
:102FA000007F3ED0B1F5407F41D02AE0116811F496
:102FB000406109D0B1F5806F37D0B1F5006F30D0E6
:102FC000B1F5406F33D01CE001211BE0116811F412
:102FD000405117D0B1F5805F27D0B1F5005F20D008
:102FE000B1F5405F23D00CE0116811F4404109D0E5
:102FF000B1F5804F19D0B1F5004F12D0B1F5404F67
:1030000015D01021E2694FF6EF76B2F5004F10D0DF
:10301000092970D2DFE801F0535D678370838383F1
:103020007A000221EEE700E001E00421EAE708214E
:10303000E8E7092935D2DFE801F0050F193421341A
:1030400034342B00FEF7C6FE4100606801EB5001EE
:10305000B1FBF0F080B225E0FEF7CCFE41006068E5
:1030600001EB5001B1FBF0F080B21BE06068354924
:1030700001EB5001B1FBF0F080B213E0FEF7CAFEA5
:103080004100606801EB5001B1FBF0F080B209E053
:1030900060684FF4803101EB5001B1FBF0F080B279
:1030A00000E00125A0F11001B14240D84FF6F071C7
:1030B0000140C0F3420008432168C86038E0FEF7D1
:1030C00089FE0146606801EB5001B1FBF0F080B26F
:1030D00026E0FEF78FFE0146606801EB5001B1FB70
:1030E000F0F080B21CE06068174901EB5001B1FBC1
:1030F000F0F080B214E012E0FEF78CFE014660684A
:1031000001EB5001B1FBF0F080B209E060684FF4D0
:10311000004101EB5001B1FBF0F080B200E001256D
:10312000A0F11001B1429CBF2168C86000D90125FF
:10313000002020666066284670BD0000F369FFEF3E
:10314000903802400048E8010024F4002DE9F047DF
:103150000446006898461646089D0F46C06931EA45
:1031600000000CBF01200020B04204BF4FF0000A55
:103170004FF0200947D1B5F1FF3F3BD0FEF794F95E
:10318000A0EB0800A84222D80DB32068016811F016
:10319000040F1CBFC06910F4006F2BD021684FF4DE
:1031A000006008622068016821F4D0710160206825
:1031B000816821F001018160C4F87490C4F87890AE
:1031C000C4F87C90032084F870A0BDE8F0872068E4
:1031D000016821F4D07101602068816821F001014B
:1031E0008160C4F87490C4F87890032084F870A0CB
:1031F000BDE8F0872068C06937EA00000CBF0120F5
:103200000020B042B7D00020BDE8F0870148FFF7AA
:103210007FB900009400002019480068C16911F4CA
:10322000006F08BF704710B54FF400620262154C82
:103230002068016821F00101016020684168124B9B
:10324000C1F14101984288BF104B04D8104B9842FD
:1032500088BF104B0BD91A60412242600E4800F023
:103260009DF82068016841F00101016010BDDFF8A0
:103270002CC00B4B60458CBFDA609A60ECE7000015
:10328000B802002098030020586402400C640240F9
:10329000B860024008640240000000C0586002406C
:1032A000006002402DE9F843354C00263349216087
:1032B000C4E901060C20E660C4E90460C813C4E94F
:1032C0000660266220466662FFF704FA002818BFEF
:1032D000FDF7ECF82B48016841F40011016000682B
:1032E0004FF00068294D00F4001000902648C5E911
:1032F00000084020C5E902060701C002C5E90476BE
:10330000AE61C5E9076028466E62FDF765FE0028DC
:1033100018BFFDF7CBF8A566AC631E4D1C482860AE
:103320002846C5E90186C5E903676E61AE61EE61B5
:103330002E626E62FDF750FE002818BFFDF7B6F84A
:10334000E5666423AC632068134A00F1240102F5AA
:10335000A270FDF7EBFE0A481421FFF7A5FA084812
:10336000FFF7BBF82068016841F0806101602068C8
:10337000816841F0C0018160BDE8F883004C0040E5
:10338000780100203038024070600240F8010020CF
:103390004060024058020020140100208AB2014619
:1033A000054810B5FFF7B2FC03480068C16911F089
:1033B000400FFBD010BD000078010020FEE702E0C6
:1033C00008C8121F08C1002AFAD1704770470020B0
:1033D00001E001C1121F002AFBD17047002819BF6C
:1033E0000029002A0020704710B50B4601461846F8
:1033F000FCF74FFF012010BDFCF7A2FFFEF762F8BB
:10340000FFF7B8FBFFF75AFAFFF740FB0548FFF755
:1034100049FF4FF46120FFF78BFA03484121FFF782
:10342000BDFFFAE780841E00000200C000061016EF
:103430000006101600000000000000000102030456
:103440000607080900000000010203046C340008AC
:103450000000002014000000BE3300088034000883
:10346000140000201C080000CE33000800000000FB
:103470000100000010000000000000000024F40023
:04000005080001F9F5
:00000001FF
